{
  "_format": "hh-sol-artifact-1",
  "contractName": "AuctionHouse",
  "sourceName": "contracts/AuctionHouse.sol",
  "abi": [
    {
      "inputs": [
        {
          "internalType": "address",
          "name": "_auctionToken",
          "type": "address"
        },
        {
          "internalType": "address",
          "name": "initialAdmin",
          "type": "address"
        }
      ],
      "stateMutability": "nonpayable",
      "type": "constructor"
    },
    {
      "anonymous": false,
      "inputs": [
        {
          "indexed": false,
          "internalType": "uint256",
          "name": "auctionId",
          "type": "uint256"
        }
      ],
      "name": "AuctionCancelled",
      "type": "event"
    },
    {
      "anonymous": false,
      "inputs": [
        {
          "indexed": false,
          "internalType": "uint256",
          "name": "auctionId",
          "type": "uint256"
        },
        {
          "indexed": false,
          "internalType": "address",
          "name": "winner",
          "type": "address"
        },
        {
          "indexed": false,
          "internalType": "uint256",
          "name": "winningBid",
          "type": "uint256"
        }
      ],
      "name": "AuctionEnded",
      "type": "event"
    },
    {
      "anonymous": false,
      "inputs": [
        {
          "indexed": false,
          "internalType": "uint256",
          "name": "auctionId",
          "type": "uint256"
        },
        {
          "indexed": false,
          "internalType": "uint256",
          "name": "startingPrice",
          "type": "uint256"
        },
        {
          "indexed": false,
          "internalType": "uint256",
          "name": "endTime",
          "type": "uint256"
        }
      ],
      "name": "AuctionStarted",
      "type": "event"
    },
    {
      "anonymous": false,
      "inputs": [
        {
          "indexed": false,
          "internalType": "uint256",
          "name": "auctionId",
          "type": "uint256"
        },
        {
          "indexed": false,
          "internalType": "uint256",
          "name": "newStartingPrice",
          "type": "uint256"
        }
      ],
      "name": "AuctionUpdated",
      "type": "event"
    },
    {
      "anonymous": false,
      "inputs": [
        {
          "indexed": false,
          "internalType": "uint256",
          "name": "auctionId",
          "type": "uint256"
        },
        {
          "indexed": false,
          "internalType": "address",
          "name": "bidder",
          "type": "address"
        },
        {
          "indexed": false,
          "internalType": "uint256",
          "name": "amount",
          "type": "uint256"
        }
      ],
      "name": "BidPlaced",
      "type": "event"
    },
    {
      "anonymous": false,
      "inputs": [
        {
          "indexed": false,
          "internalType": "address",
          "name": "to",
          "type": "address"
        },
        {
          "indexed": false,
          "internalType": "uint256",
          "name": "amount",
          "type": "uint256"
        }
      ],
      "name": "FeeWithdrawn",
      "type": "event"
    },
    {
      "anonymous": false,
      "inputs": [
        {
          "indexed": false,
          "internalType": "uint256",
          "name": "auctionId",
          "type": "uint256"
        }
      ],
      "name": "ItemClaimed",
      "type": "event"
    },
    {
      "inputs": [
        {
          "internalType": "address",
          "name": "manager",
          "type": "address"
        }
      ],
      "name": "addManager",
      "outputs": [],
      "stateMutability": "nonpayable",
      "type": "function"
    },
    {
      "inputs": [],
      "name": "admin",
      "outputs": [
        {
          "internalType": "address",
          "name": "",
          "type": "address"
        }
      ],
      "stateMutability": "view",
      "type": "function"
    },
    {
      "inputs": [],
      "name": "auctionToken",
      "outputs": [
        {
          "internalType": "contract IERC20",
          "name": "",
          "type": "address"
        }
      ],
      "stateMutability": "view",
      "type": "function"
    },
    {
      "inputs": [
        {
          "internalType": "uint256",
          "name": "",
          "type": "uint256"
        }
      ],
      "name": "auctions",
      "outputs": [
        {
          "internalType": "uint256",
          "name": "auctionId",
          "type": "uint256"
        },
        {
          "internalType": "address",
          "name": "seller",
          "type": "address"
        },
        {
          "internalType": "address",
          "name": "itemContract",
          "type": "address"
        },
        {
          "internalType": "uint256",
          "name": "itemId",
          "type": "uint256"
        },
        {
          "internalType": "uint256",
          "name": "startingPrice",
          "type": "uint256"
        },
        {
          "internalType": "uint256",
          "name": "endTime",
          "type": "uint256"
        },
        {
          "internalType": "uint256",
          "name": "currentBid",
          "type": "uint256"
        },
        {
          "internalType": "address",
          "name": "currentBidder",
          "type": "address"
        }
      ],
      "stateMutability": "view",
      "type": "function"
    },
    {
      "inputs": [
        {
          "internalType": "uint256",
          "name": "auctionId",
          "type": "uint256"
        }
      ],
      "name": "cancelAuction",
      "outputs": [],
      "stateMutability": "nonpayable",
      "type": "function"
    },
    {
      "inputs": [
        {
          "internalType": "address",
          "name": "newAdmin",
          "type": "address"
        }
      ],
      "name": "changeAdmin",
      "outputs": [],
      "stateMutability": "nonpayable",
      "type": "function"
    },
    {
      "inputs": [
        {
          "internalType": "uint256",
          "name": "auctionId",
          "type": "uint256"
        }
      ],
      "name": "claimItem",
      "outputs": [],
      "stateMutability": "nonpayable",
      "type": "function"
    },
    {
      "inputs": [
        {
          "internalType": "uint256",
          "name": "auctionId",
          "type": "uint256"
        }
      ],
      "name": "endAuction",
      "outputs": [],
      "stateMutability": "nonpayable",
      "type": "function"
    },
    {
      "inputs": [],
      "name": "feePercentage",
      "outputs": [
        {
          "internalType": "uint256",
          "name": "",
          "type": "uint256"
        }
      ],
      "stateMutability": "view",
      "type": "function"
    },
    {
      "inputs": [],
      "name": "getAuctions",
      "outputs": [
        {
          "components": [
            {
              "internalType": "uint256",
              "name": "auctionId",
              "type": "uint256"
            },
            {
              "internalType": "address",
              "name": "seller",
              "type": "address"
            },
            {
              "internalType": "address",
              "name": "itemContract",
              "type": "address"
            },
            {
              "internalType": "uint256",
              "name": "itemId",
              "type": "uint256"
            },
            {
              "internalType": "uint256",
              "name": "startingPrice",
              "type": "uint256"
            },
            {
              "internalType": "uint256",
              "name": "endTime",
              "type": "uint256"
            },
            {
              "internalType": "uint256",
              "name": "currentBid",
              "type": "uint256"
            },
            {
              "internalType": "address",
              "name": "currentBidder",
              "type": "address"
            }
          ],
          "internalType": "struct AuctionHouse.Auction[]",
          "name": "",
          "type": "tuple[]"
        }
      ],
      "stateMutability": "view",
      "type": "function"
    },
    {
      "inputs": [
        {
          "internalType": "address",
          "name": "seller",
          "type": "address"
        }
      ],
      "name": "getAuctionsBySeller",
      "outputs": [
        {
          "components": [
            {
              "internalType": "uint256",
              "name": "auctionId",
              "type": "uint256"
            },
            {
              "internalType": "address",
              "name": "seller",
              "type": "address"
            },
            {
              "internalType": "address",
              "name": "itemContract",
              "type": "address"
            },
            {
              "internalType": "uint256",
              "name": "itemId",
              "type": "uint256"
            },
            {
              "internalType": "uint256",
              "name": "startingPrice",
              "type": "uint256"
            },
            {
              "internalType": "uint256",
              "name": "endTime",
              "type": "uint256"
            },
            {
              "internalType": "uint256",
              "name": "currentBid",
              "type": "uint256"
            },
            {
              "internalType": "address",
              "name": "currentBidder",
              "type": "address"
            }
          ],
          "internalType": "struct AuctionHouse.Auction[]",
          "name": "",
          "type": "tuple[]"
        }
      ],
      "stateMutability": "view",
      "type": "function"
    },
    {
      "inputs": [],
      "name": "getFees",
      "outputs": [
        {
          "internalType": "uint256",
          "name": "",
          "type": "uint256"
        }
      ],
      "stateMutability": "view",
      "type": "function"
    },
    {
      "inputs": [
        {
          "internalType": "address",
          "name": "addr",
          "type": "address"
        }
      ],
      "name": "isManager",
      "outputs": [
        {
          "internalType": "bool",
          "name": "",
          "type": "bool"
        }
      ],
      "stateMutability": "view",
      "type": "function"
    },
    {
      "inputs": [
        {
          "internalType": "uint256",
          "name": "auctionId",
          "type": "uint256"
        },
        {
          "internalType": "uint256",
          "name": "newStartingPrice",
          "type": "uint256"
        }
      ],
      "name": "lowerStartingPrice",
      "outputs": [],
      "stateMutability": "nonpayable",
      "type": "function"
    },
    {
      "inputs": [
        {
          "internalType": "uint256",
          "name": "",
          "type": "uint256"
        }
      ],
      "name": "managers",
      "outputs": [
        {
          "internalType": "address",
          "name": "",
          "type": "address"
        }
      ],
      "stateMutability": "view",
      "type": "function"
    },
    {
      "inputs": [
        {
          "internalType": "uint256",
          "name": "auctionId",
          "type": "uint256"
        },
        {
          "internalType": "uint256",
          "name": "amount",
          "type": "uint256"
        }
      ],
      "name": "placeBid",
      "outputs": [],
      "stateMutability": "nonpayable",
      "type": "function"
    },
    {
      "inputs": [
        {
          "internalType": "address",
          "name": "manager",
          "type": "address"
        }
      ],
      "name": "removeManager",
      "outputs": [],
      "stateMutability": "nonpayable",
      "type": "function"
    },
    {
      "inputs": [
        {
          "internalType": "uint256",
          "name": "_feePercentage",
          "type": "uint256"
        }
      ],
      "name": "setFeePercentage",
      "outputs": [],
      "stateMutability": "nonpayable",
      "type": "function"
    },
    {
      "inputs": [
        {
          "internalType": "address",
          "name": "itemContract",
          "type": "address"
        },
        {
          "internalType": "uint256",
          "name": "itemId",
          "type": "uint256"
        },
        {
          "internalType": "uint256",
          "name": "startingPrice",
          "type": "uint256"
        },
        {
          "internalType": "uint256",
          "name": "duration",
          "type": "uint256"
        }
      ],
      "name": "startAuction",
      "outputs": [],
      "stateMutability": "nonpayable",
      "type": "function"
    },
    {
      "inputs": [
        {
          "internalType": "uint256",
          "name": "amount",
          "type": "uint256"
        }
      ],
      "name": "withdrawFees",
      "outputs": [],
      "stateMutability": "nonpayable",
      "type": "function"
    }
  ],
  "bytecode": "0x60806040526000805560fa6002553480156200001a57600080fd5b5060405162003def38038062003def833981810160405281019062000040919062000134565b81600160006101000a81548173ffffffffffffffffffffffffffffffffffffffff021916908373ffffffffffffffffffffffffffffffffffffffff16021790555080600360006101000a81548173ffffffffffffffffffffffffffffffffffffffff021916908373ffffffffffffffffffffffffffffffffffffffff16021790555050506200017b565b600080fd5b600073ffffffffffffffffffffffffffffffffffffffff82169050919050565b6000620000fc82620000cf565b9050919050565b6200010e81620000ef565b81146200011a57600080fd5b50565b6000815190506200012e8162000103565b92915050565b600080604083850312156200014e576200014d620000ca565b5b60006200015e858286016200011d565b925050602062000171858286016200011d565b9150509250929050565b613c64806200018b6000396000f3fe608060405234801561001057600080fd5b506004361061012c5760003560e01c80639c166273116100ad578063bf98065c11610071578063bf98065c1461031c578063d7c0691914610338578063db8d55f114610356578063f3ae241514610374578063f851a440146103a45761012c565b80639c1662731461028e578063a001ecdd146102aa578063ac18de43146102c8578063ae06c1b7146102e4578063b9a2de3a146103005761012c565b806375e90561116100f457806375e90561146101ec5780637da393e01461021c5780638f2839701461023857806396b5a7551461025457806399fdb320146102705761012c565b80632d06177a146101315780633d39c2601461014d578063571a26a01461017d57806357c90de5146101b45780635e318e07146101d0575b600080fd5b61014b60048036038101906101469190612c4c565b6103c2565b005b61016760048036038101906101629190612caf565b610501565b6040516101749190612ceb565b60405180910390f35b61019760048036038101906101929190612caf565b610540565b6040516101ab989796959493929190612d15565b60405180910390f35b6101ce60048036038101906101c99190612d93565b6105e8565b005b6101ea60048036038101906101e59190612caf565b610a29565b005b61020660048036038101906102019190612c4c565b610cce565b6040516102139190612f43565b60405180910390f35b61023660048036038101906102319190612caf565b610fef565b005b610252600480360381019061024d9190612c4c565b61140f565b005b61026e60048036038101906102699190612caf565b6114e3565b005b61027861194a565b6040516102859190612fc4565b60405180910390f35b6102a860048036038101906102a39190612fdf565b611970565b005b6102b2611d16565b6040516102bf9190613046565b60405180910390f35b6102e260048036038101906102dd9190612c4c565b611d1c565b005b6102fe60048036038101906102f99190612caf565b611f3c565b005b61031a60048036038101906103159190612caf565b61202b565b005b61033660048036038101906103319190612d93565b612541565b005b6103406127f7565b60405161034d9190612f43565b60405180910390f35b61035e6129eb565b60405161036b9190613046565b60405180910390f35b61038e60048036038101906103899190612c4c565b612a8e565b60405161039b919061307c565b60405180910390f35b6103ac612b3c565b6040516103b99190612ceb565b60405180910390f35b600360009054906101000a900473ffffffffffffffffffffffffffffffffffffffff1673ffffffffffffffffffffffffffffffffffffffff163373ffffffffffffffffffffffffffffffffffffffff1614610452576040517f08c379a0000000000000000000000000000000000000000000000000000000008152600401610449906130f4565b60405180910390fd5b61045b81612a8e565b1561049b576040517f08c379a000000000000000000000000000000000000000000000000000000000815260040161049290613160565b60405180910390fd5b6004819080600181540180825580915050600190039060005260206000200160009091909190916101000a81548173ffffffffffffffffffffffffffffffffffffffff021916908373ffffffffffffffffffffffffffffffffffffffff16021790555050565b6004818154811061051157600080fd5b906000526020600020016000915054906101000a900473ffffffffffffffffffffffffffffffffffffffff1681565b60056020528060005260406000206000915090508060000154908060010160009054906101000a900473ffffffffffffffffffffffffffffffffffffffff16908060020160009054906101000a900473ffffffffffffffffffffffffffffffffffffffff16908060030154908060040154908060050154908060060154908060070160009054906101000a900473ffffffffffffffffffffffffffffffffffffffff16905088565b81600073ffffffffffffffffffffffffffffffffffffffff166005600083815260200190815260200160002060010160009054906101000a900473ffffffffffffffffffffffffffffffffffffffff1673ffffffffffffffffffffffffffffffffffffffff160361068e576040517f08c379a0000000000000000000000000000000000000000000000000000000008152600401610685906131cc565b60405180910390fd5b82600560008281526020019081526020016000206005015442106106e7576040517f08c379a00000000000000000000000000000000000000000000000000000000081526004016106de90613238565b60405180910390fd5b600060056000868152602001908152602001600020905080600601548411610744576040517f08c379a000000000000000000000000000000000000000000000000000000000815260040161073b906132ca565b60405180910390fd5b8060070160009054906101000a900473ffffffffffffffffffffffffffffffffffffffff1673ffffffffffffffffffffffffffffffffffffffff163373ffffffffffffffffffffffffffffffffffffffff16036107d6576040517f08c379a00000000000000000000000000000000000000000000000000000000081526004016107cd90613336565b60405180910390fd5b600160009054906101000a900473ffffffffffffffffffffffffffffffffffffffff1673ffffffffffffffffffffffffffffffffffffffff166323b872dd3330876040518463ffffffff1660e01b815260040161083593929190613356565b6020604051808303816000875af1158015610854573d6000803e3d6000fd5b505050506040513d601f19601f8201168201806040525081019061087891906133b9565b50600073ffffffffffffffffffffffffffffffffffffffff168160070160009054906101000a900473ffffffffffffffffffffffffffffffffffffffff1673ffffffffffffffffffffffffffffffffffffffff161461099b57600160009054906101000a900473ffffffffffffffffffffffffffffffffffffffff1673ffffffffffffffffffffffffffffffffffffffff1663a9059cbb8260070160009054906101000a900473ffffffffffffffffffffffffffffffffffffffff1683600601546040518363ffffffff1660e01b81526004016109569291906133e6565b6020604051808303816000875af1158015610975573d6000803e3d6000fd5b505050506040513d601f19601f8201168201806040525081019061099991906133b9565b505b838160060181905550338160070160006101000a81548173ffffffffffffffffffffffffffffffffffffffff021916908373ffffffffffffffffffffffffffffffffffffffff1602179055507f0e54eff26401bf69b81b26f60bd85ef47f5d85275c1d268d84f68d6897431c47853386604051610a1a9392919061340f565b60405180910390a15050505050565b600360009054906101000a900473ffffffffffffffffffffffffffffffffffffffff1673ffffffffffffffffffffffffffffffffffffffff163373ffffffffffffffffffffffffffffffffffffffff161480610a8a5750610a8933612a8e565b5b610ac9576040517f08c379a0000000000000000000000000000000000000000000000000000000008152600401610ac090613492565b60405180910390fd5b6000600160009054906101000a900473ffffffffffffffffffffffffffffffffffffffff1673ffffffffffffffffffffffffffffffffffffffff166370a08231306040518263ffffffff1660e01b8152600401610b269190612ceb565b602060405180830381865afa158015610b43573d6000803e3d6000fd5b505050506040513d601f19601f82011682018060405250810190610b6791906134c7565b905080821115610bac576040517f08c379a0000000000000000000000000000000000000000000000000000000008152600401610ba390613540565b60405180910390fd5b600160009054906101000a900473ffffffffffffffffffffffffffffffffffffffff1673ffffffffffffffffffffffffffffffffffffffff1663a9059cbb600360009054906101000a900473ffffffffffffffffffffffffffffffffffffffff16846040518363ffffffff1660e01b8152600401610c2b9291906133e6565b6020604051808303816000875af1158015610c4a573d6000803e3d6000fd5b505050506040513d601f19601f82011682018060405250810190610c6e91906133b9565b507f78473f3f373f7673597f4f0fa5873cb4d375fea6d4339ad6b56dbd411513cb3f600360009054906101000a900473ffffffffffffffffffffffffffffffffffffffff1683604051610cc29291906133e6565b60405180910390a15050565b60606000805467ffffffffffffffff811115610ced57610cec613560565b5b604051908082528060200260200182016040528015610d2657816020015b610d13612b62565b815260200190600190039081610d0b5790505b5090506000805b600054811015610f33578473ffffffffffffffffffffffffffffffffffffffff166005600083815260200190815260200160002060010160009054906101000a900473ffffffffffffffffffffffffffffffffffffffff1673ffffffffffffffffffffffffffffffffffffffff1603610f20576005600082815260200190815260200160002060405180610100016040529081600082015481526020016001820160009054906101000a900473ffffffffffffffffffffffffffffffffffffffff1673ffffffffffffffffffffffffffffffffffffffff1673ffffffffffffffffffffffffffffffffffffffff1681526020016002820160009054906101000a900473ffffffffffffffffffffffffffffffffffffffff1673ffffffffffffffffffffffffffffffffffffffff1673ffffffffffffffffffffffffffffffffffffffff168152602001600382015481526020016004820154815260200160058201548152602001600682015481526020016007820160009054906101000a900473ffffffffffffffffffffffffffffffffffffffff1673ffffffffffffffffffffffffffffffffffffffff1673ffffffffffffffffffffffffffffffffffffffff1681525050838381518110610f0657610f0561358f565b5b60200260200101819052508180610f1c906135ed565b9250505b8080610f2b906135ed565b915050610d2d565b5060008167ffffffffffffffff811115610f5057610f4f613560565b5b604051908082528060200260200182016040528015610f8957816020015b610f76612b62565b815260200190600190039081610f6e5790505b50905060005b82811015610fe357838181518110610faa57610fa961358f565b5b6020026020010151828281518110610fc557610fc461358f565b5b60200260200101819052508080610fdb906135ed565b915050610f8f565b50809350505050919050565b80600073ffffffffffffffffffffffffffffffffffffffff166005600083815260200190815260200160002060010160009054906101000a900473ffffffffffffffffffffffffffffffffffffffff1673ffffffffffffffffffffffffffffffffffffffff1603611095576040517f08c379a000000000000000000000000000000000000000000000000000000000815260040161108c906131cc565b60405180910390fd5b600060056000848152602001908152602001600020905080600501544210156110f3576040517f08c379a00000000000000000000000000000000000000000000000000000000081526004016110ea90613681565b60405180910390fd5b8060070160009054906101000a900473ffffffffffffffffffffffffffffffffffffffff1673ffffffffffffffffffffffffffffffffffffffff163373ffffffffffffffffffffffffffffffffffffffff1614611185576040517f08c379a000000000000000000000000000000000000000000000000000000000815260040161117c906136ed565b60405180910390fd5b60008160020160009054906101000a900473ffffffffffffffffffffffffffffffffffffffff169050600061271060025484600601546111c5919061370d565b6111cf919061377e565b905060008184600601546111e391906137af565b90508273ffffffffffffffffffffffffffffffffffffffff166323b872dd303387600301546040518463ffffffff1660e01b815260040161122693929190613356565b600060405180830381600087803b15801561124057600080fd5b505af1158015611254573d6000803e3d6000fd5b50505050600160009054906101000a900473ffffffffffffffffffffffffffffffffffffffff1673ffffffffffffffffffffffffffffffffffffffff1663a9059cbb8560010160009054906101000a900473ffffffffffffffffffffffffffffffffffffffff16836040518363ffffffff1660e01b81526004016112d99291906133e6565b6020604051808303816000875af11580156112f8573d6000803e3d6000fd5b505050506040513d601f19601f8201168201806040525081019061131c91906133b9565b507f5d9121d0d49467544ab0278e267daa7661304e0bd2994dbbc9d2922b58133c608660405161134c9190613046565b60405180910390a1600560008781526020019081526020016000206000808201600090556001820160006101000a81549073ffffffffffffffffffffffffffffffffffffffff02191690556002820160006101000a81549073ffffffffffffffffffffffffffffffffffffffff021916905560038201600090556004820160009055600582016000905560068201600090556007820160006101000a81549073ffffffffffffffffffffffffffffffffffffffff02191690555050505050505050565b600360009054906101000a900473ffffffffffffffffffffffffffffffffffffffff1673ffffffffffffffffffffffffffffffffffffffff163373ffffffffffffffffffffffffffffffffffffffff161461149f576040517f08c379a0000000000000000000000000000000000000000000000000000000008152600401611496906130f4565b60405180910390fd5b80600360006101000a81548173ffffffffffffffffffffffffffffffffffffffff021916908373ffffffffffffffffffffffffffffffffffffffff16021790555050565b80600073ffffffffffffffffffffffffffffffffffffffff166005600083815260200190815260200160002060010160009054906101000a900473ffffffffffffffffffffffffffffffffffffffff1673ffffffffffffffffffffffffffffffffffffffff1603611589576040517f08c379a0000000000000000000000000000000000000000000000000000000008152600401611580906131cc565b60405180910390fd5b60006005600084815260200190815260200160002090508060010160009054906101000a900473ffffffffffffffffffffffffffffffffffffffff1673ffffffffffffffffffffffffffffffffffffffff163373ffffffffffffffffffffffffffffffffffffffff1614611632576040517f08c379a00000000000000000000000000000000000000000000000000000000081526004016116299061382f565b60405180910390fd5b80600501544210611678576040517f08c379a000000000000000000000000000000000000000000000000000000000815260040161166f90613238565b60405180910390fd5b60008160020160009054906101000a900473ffffffffffffffffffffffffffffffffffffffff1690508073ffffffffffffffffffffffffffffffffffffffff166323b872dd308460010160009054906101000a900473ffffffffffffffffffffffffffffffffffffffff1685600301546040518463ffffffff1660e01b815260040161170693929190613356565b600060405180830381600087803b15801561172057600080fd5b505af1158015611734573d6000803e3d6000fd5b50505050600073ffffffffffffffffffffffffffffffffffffffff168260070160009054906101000a900473ffffffffffffffffffffffffffffffffffffffff1673ffffffffffffffffffffffffffffffffffffffff161461185a57600160009054906101000a900473ffffffffffffffffffffffffffffffffffffffff1673ffffffffffffffffffffffffffffffffffffffff1663a9059cbb8360070160009054906101000a900473ffffffffffffffffffffffffffffffffffffffff1684600601546040518363ffffffff1660e01b81526004016118159291906133e6565b6020604051808303816000875af1158015611834573d6000803e3d6000fd5b505050506040513d601f19601f8201168201806040525081019061185891906133b9565b505b7f2809c7e17bf978fbc7194c0a694b638c4215e9140cacc6c38ca36010b45697df846040516118899190613046565b60405180910390a1600560008581526020019081526020016000206000808201600090556001820160006101000a81549073ffffffffffffffffffffffffffffffffffffffff02191690556002820160006101000a81549073ffffffffffffffffffffffffffffffffffffffff021916905560038201600090556004820160009055600582016000905560068201600090556007820160006101000a81549073ffffffffffffffffffffffffffffffffffffffff0219169055505050505050565b600160009054906101000a900473ffffffffffffffffffffffffffffffffffffffff1681565b60008490508073ffffffffffffffffffffffffffffffffffffffff16636352211e856040518263ffffffff1660e01b81526004016119ae9190613046565b602060405180830381865afa1580156119cb573d6000803e3d6000fd5b505050506040513d601f19601f820116820180604052508101906119ef9190613864565b73ffffffffffffffffffffffffffffffffffffffff163273ffffffffffffffffffffffffffffffffffffffff1614611a5c576040517f08c379a0000000000000000000000000000000000000000000000000000000008152600401611a53906138dd565b60405180910390fd5b60008311611a9f576040517f08c379a0000000000000000000000000000000000000000000000000000000008152600401611a969061396f565b60405180910390fd5b8073ffffffffffffffffffffffffffffffffffffffff166323b872dd3230876040518463ffffffff1660e01b8152600401611adc93929190613356565b600060405180830381600087803b158015611af657600080fd5b505af1158015611b0a573d6000803e3d6000fd5b505050506000806000815480929190611b22906135ed565b91905055905060008342611b36919061398f565b90506040518061010001604052808381526020013273ffffffffffffffffffffffffffffffffffffffff1681526020018873ffffffffffffffffffffffffffffffffffffffff168152602001878152602001868152602001828152602001868152602001600073ffffffffffffffffffffffffffffffffffffffff16815250600560008481526020019081526020016000206000820151816000015560208201518160010160006101000a81548173ffffffffffffffffffffffffffffffffffffffff021916908373ffffffffffffffffffffffffffffffffffffffff16021790555060408201518160020160006101000a81548173ffffffffffffffffffffffffffffffffffffffff021916908373ffffffffffffffffffffffffffffffffffffffff160217905550606082015181600301556080820151816004015560a0820151816005015560c0820151816006015560e08201518160070160006101000a81548173ffffffffffffffffffffffffffffffffffffffff021916908373ffffffffffffffffffffffffffffffffffffffff1602179055509050507f44c53be110c6aa83aa83cd02e351ed172359268272ee1b5d31c0fe48db35c6c7828683604051611d05939291906139c3565b60405180910390a150505050505050565b60025481565b600360009054906101000a900473ffffffffffffffffffffffffffffffffffffffff1673ffffffffffffffffffffffffffffffffffffffff163373ffffffffffffffffffffffffffffffffffffffff1614611dac576040517f08c379a0000000000000000000000000000000000000000000000000000000008152600401611da3906130f4565b60405180910390fd5b60005b600480549050811015611f38578173ffffffffffffffffffffffffffffffffffffffff1660048281548110611de757611de661358f565b5b9060005260206000200160009054906101000a900473ffffffffffffffffffffffffffffffffffffffff1673ffffffffffffffffffffffffffffffffffffffff1603611f255760046001600480549050611e4191906137af565b81548110611e5257611e5161358f565b5b9060005260206000200160009054906101000a900473ffffffffffffffffffffffffffffffffffffffff1660048281548110611e9157611e9061358f565b5b9060005260206000200160006101000a81548173ffffffffffffffffffffffffffffffffffffffff021916908373ffffffffffffffffffffffffffffffffffffffff1602179055506004805480611eeb57611eea6139fa565b5b6001900381819060005260206000200160006101000a81549073ffffffffffffffffffffffffffffffffffffffff02191690559055611f38565b8080611f30906135ed565b915050611daf565b5050565b600360009054906101000a900473ffffffffffffffffffffffffffffffffffffffff1673ffffffffffffffffffffffffffffffffffffffff163373ffffffffffffffffffffffffffffffffffffffff161480611f9d5750611f9c33612a8e565b5b611fdc576040517f08c379a0000000000000000000000000000000000000000000000000000000008152600401611fd390613492565b60405180910390fd5b612710811115612021576040517f08c379a000000000000000000000000000000000000000000000000000000000815260040161201890613a75565b60405180910390fd5b8060028190555050565b80600073ffffffffffffffffffffffffffffffffffffffff166005600083815260200190815260200160002060010160009054906101000a900473ffffffffffffffffffffffffffffffffffffffff1673ffffffffffffffffffffffffffffffffffffffff16036120d1576040517f08c379a00000000000000000000000000000000000000000000000000000000081526004016120c8906131cc565b60405180910390fd5b60006005600084815260200190815260200160002090508060010160009054906101000a900473ffffffffffffffffffffffffffffffffffffffff1673ffffffffffffffffffffffffffffffffffffffff163373ffffffffffffffffffffffffffffffffffffffff161461217a576040517f08c379a00000000000000000000000000000000000000000000000000000000081526004016121719061382f565b60405180910390fd5b60008160070160009054906101000a900473ffffffffffffffffffffffffffffffffffffffff1690506000826006015490506000612710600254836121bf919061370d565b6121c9919061377e565b9050600081836121d991906137af565b905060008560020160009054906101000a900473ffffffffffffffffffffffffffffffffffffffff169050600073ffffffffffffffffffffffffffffffffffffffff168573ffffffffffffffffffffffffffffffffffffffff16146123b0578073ffffffffffffffffffffffffffffffffffffffff166323b872dd308789600301546040518463ffffffff1660e01b815260040161227993929190613356565b600060405180830381600087803b15801561229357600080fd5b505af11580156122a7573d6000803e3d6000fd5b50505050600160009054906101000a900473ffffffffffffffffffffffffffffffffffffffff1673ffffffffffffffffffffffffffffffffffffffff1663a9059cbb8760010160009054906101000a900473ffffffffffffffffffffffffffffffffffffffff16846040518363ffffffff1660e01b815260040161232c9291906133e6565b6020604051808303816000875af115801561234b573d6000803e3d6000fd5b505050506040513d601f19601f8201168201806040525081019061236f91906133b9565b507fd2aa34a4fdbbc6dff6a3e56f46e0f3ae2a31d7785ff3487aa5c95c642acea5018886866040516123a39392919061340f565b60405180910390a1612484565b8073ffffffffffffffffffffffffffffffffffffffff166323b872dd308860010160009054906101000a900473ffffffffffffffffffffffffffffffffffffffff1689600301546040518463ffffffff1660e01b815260040161241593929190613356565b600060405180830381600087803b15801561242f57600080fd5b505af1158015612443573d6000803e3d6000fd5b505050507fd2aa34a4fdbbc6dff6a3e56f46e0f3ae2a31d7785ff3487aa5c95c642acea5018830600060405161247b93929190613ad0565b60405180910390a15b600560008981526020019081526020016000206000808201600090556001820160006101000a81549073ffffffffffffffffffffffffffffffffffffffff02191690556002820160006101000a81549073ffffffffffffffffffffffffffffffffffffffff021916905560038201600090556004820160009055600582016000905560068201600090556007820160006101000a81549073ffffffffffffffffffffffffffffffffffffffff021916905550505050505050505050565b81600073ffffffffffffffffffffffffffffffffffffffff166005600083815260200190815260200160002060010160009054906101000a900473ffffffffffffffffffffffffffffffffffffffff1673ffffffffffffffffffffffffffffffffffffffff16036125e7576040517f08c379a00000000000000000000000000000000000000000000000000000000081526004016125de906131cc565b60405180910390fd5b60006005600085815260200190815260200160002090508060010160009054906101000a900473ffffffffffffffffffffffffffffffffffffffff1673ffffffffffffffffffffffffffffffffffffffff163373ffffffffffffffffffffffffffffffffffffffff1614612690576040517f08c379a00000000000000000000000000000000000000000000000000000000081526004016126879061382f565b60405180910390fd5b806005015442106126d6576040517f08c379a00000000000000000000000000000000000000000000000000000000081526004016126cd90613238565b60405180910390fd5b8060060154831061271c576040517f08c379a000000000000000000000000000000000000000000000000000000000815260040161271390613b79565b60405180910390fd5b600073ffffffffffffffffffffffffffffffffffffffff168160070160009054906101000a900473ffffffffffffffffffffffffffffffffffffffff1673ffffffffffffffffffffffffffffffffffffffff16146127af576040517f08c379a00000000000000000000000000000000000000000000000000000000081526004016127a690613be5565b60405180910390fd5b7f95f83d4dfba2e4f3f99527a8e8a18980457125d95df460c1601811c0c961528f84846040516127e0929190613c05565b60405180910390a182816004018190555050505050565b60606000805467ffffffffffffffff81111561281657612815613560565b5b60405190808252806020026020018201604052801561284f57816020015b61283c612b62565b8152602001906001900390816128345790505b50905060005b6000548110156129e3576005600082815260200190815260200160002060405180610100016040529081600082015481526020016001820160009054906101000a900473ffffffffffffffffffffffffffffffffffffffff1673ffffffffffffffffffffffffffffffffffffffff1673ffffffffffffffffffffffffffffffffffffffff1681526020016002820160009054906101000a900473ffffffffffffffffffffffffffffffffffffffff1673ffffffffffffffffffffffffffffffffffffffff1673ffffffffffffffffffffffffffffffffffffffff168152602001600382015481526020016004820154815260200160058201548152602001600682015481526020016007820160009054906101000a900473ffffffffffffffffffffffffffffffffffffffff1673ffffffffffffffffffffffffffffffffffffffff1673ffffffffffffffffffffffffffffffffffffffff16815250508282815181106129c5576129c461358f565b5b602002602001018190525080806129db906135ed565b915050612855565b508091505090565b6000600160009054906101000a900473ffffffffffffffffffffffffffffffffffffffff1673ffffffffffffffffffffffffffffffffffffffff166370a08231306040518263ffffffff1660e01b8152600401612a489190612ceb565b602060405180830381865afa158015612a65573d6000803e3d6000fd5b505050506040513d601f19601f82011682018060405250810190612a8991906134c7565b905090565b600080600090505b600480549050811015612b31578273ffffffffffffffffffffffffffffffffffffffff1660048281548110612ace57612acd61358f565b5b9060005260206000200160009054906101000a900473ffffffffffffffffffffffffffffffffffffffff1673ffffffffffffffffffffffffffffffffffffffff1603612b1e576001915050612b37565b8080612b29906135ed565b915050612a96565b50600090505b919050565b600360009054906101000a900473ffffffffffffffffffffffffffffffffffffffff1681565b60405180610100016040528060008152602001600073ffffffffffffffffffffffffffffffffffffffff168152602001600073ffffffffffffffffffffffffffffffffffffffff16815260200160008152602001600081526020016000815260200160008152602001600073ffffffffffffffffffffffffffffffffffffffff1681525090565b600080fd5b600073ffffffffffffffffffffffffffffffffffffffff82169050919050565b6000612c1982612bee565b9050919050565b612c2981612c0e565b8114612c3457600080fd5b50565b600081359050612c4681612c20565b92915050565b600060208284031215612c6257612c61612be9565b5b6000612c7084828501612c37565b91505092915050565b6000819050919050565b612c8c81612c79565b8114612c9757600080fd5b50565b600081359050612ca981612c83565b92915050565b600060208284031215612cc557612cc4612be9565b5b6000612cd384828501612c9a565b91505092915050565b612ce581612c0e565b82525050565b6000602082019050612d006000830184612cdc565b92915050565b612d0f81612c79565b82525050565b600061010082019050612d2b600083018b612d06565b612d38602083018a612cdc565b612d456040830189612cdc565b612d526060830188612d06565b612d5f6080830187612d06565b612d6c60a0830186612d06565b612d7960c0830185612d06565b612d8660e0830184612cdc565b9998505050505050505050565b60008060408385031215612daa57612da9612be9565b5b6000612db885828601612c9a565b9250506020612dc985828601612c9a565b9150509250929050565b600081519050919050565b600082825260208201905092915050565b6000819050602082019050919050565b612e0881612c79565b82525050565b612e1781612c0e565b82525050565b61010082016000820151612e346000850182612dff565b506020820151612e476020850182612e0e565b506040820151612e5a6040850182612e0e565b506060820151612e6d6060850182612dff565b506080820151612e806080850182612dff565b5060a0820151612e9360a0850182612dff565b5060c0820151612ea660c0850182612dff565b5060e0820151612eb960e0850182612e0e565b50505050565b6000612ecb8383612e1d565b6101008301905092915050565b6000602082019050919050565b6000612ef082612dd3565b612efa8185612dde565b9350612f0583612def565b8060005b83811015612f36578151612f1d8882612ebf565b9750612f2883612ed8565b925050600181019050612f09565b5085935050505092915050565b60006020820190508181036000830152612f5d8184612ee5565b905092915050565b6000819050919050565b6000612f8a612f85612f8084612bee565b612f65565b612bee565b9050919050565b6000612f9c82612f6f565b9050919050565b6000612fae82612f91565b9050919050565b612fbe81612fa3565b82525050565b6000602082019050612fd96000830184612fb5565b92915050565b60008060008060808587031215612ff957612ff8612be9565b5b600061300787828801612c37565b945050602061301887828801612c9a565b935050604061302987828801612c9a565b925050606061303a87828801612c9a565b91505092959194509250565b600060208201905061305b6000830184612d06565b92915050565b60008115159050919050565b61307681613061565b82525050565b6000602082019050613091600083018461306d565b92915050565b600082825260208201905092915050565b7f4e6f7420616e2061646d696e0000000000000000000000000000000000000000600082015250565b60006130de600c83613097565b91506130e9826130a8565b602082019050919050565b6000602082019050818103600083015261310d816130d1565b9050919050565b7f4164647265737320697320616c72656164792061206d616e6167657200000000600082015250565b600061314a601c83613097565b915061315582613114565b602082019050919050565b600060208201905081810360008301526131798161313d565b9050919050565b7f41756374696f6e20646f6573206e6f7420657869737400000000000000000000600082015250565b60006131b6601683613097565b91506131c182613180565b602082019050919050565b600060208201905081810360008301526131e5816131a9565b9050919050565b7f41756374696f6e2068617320656e646564000000000000000000000000000000600082015250565b6000613222601183613097565b915061322d826131ec565b602082019050919050565b6000602082019050818103600083015261325181613215565b9050919050565b7f426964206d75737420626520686967686572207468616e20746865206375727260008201527f656e742062696400000000000000000000000000000000000000000000000000602082015250565b60006132b4602783613097565b91506132bf82613258565b604082019050919050565b600060208201905081810360008301526132e3816132a7565b9050919050565b7f596f7520616c7265616479206861766520746865206869676865737420626964600082015250565b6000613320602083613097565b915061332b826132ea565b602082019050919050565b6000602082019050818103600083015261334f81613313565b9050919050565b600060608201905061336b6000830186612cdc565b6133786020830185612cdc565b6133856040830184612d06565b949350505050565b61339681613061565b81146133a157600080fd5b50565b6000815190506133b38161338d565b92915050565b6000602082840312156133cf576133ce612be9565b5b60006133dd848285016133a4565b91505092915050565b60006040820190506133fb6000830185612cdc565b6134086020830184612d06565b9392505050565b60006060820190506134246000830186612d06565b6134316020830185612cdc565b61343e6040830184612d06565b949350505050565b7f4e6f7420616e2061646d696e206f72206d616e61676572000000000000000000600082015250565b600061347c601783613097565b915061348782613446565b602082019050919050565b600060208201905081810360008301526134ab8161346f565b9050919050565b6000815190506134c181612c83565b92915050565b6000602082840312156134dd576134dc612be9565b5b60006134eb848285016134b2565b91505092915050565b7f416d6f756e742065786365656473206665657300000000000000000000000000600082015250565b600061352a601383613097565b9150613535826134f4565b602082019050919050565b600060208201905081810360008301526135598161351d565b9050919050565b7f4e487b7100000000000000000000000000000000000000000000000000000000600052604160045260246000fd5b7f4e487b7100000000000000000000000000000000000000000000000000000000600052603260045260246000fd5b7f4e487b7100000000000000000000000000000000000000000000000000000000600052601160045260246000fd5b60006135f882612c79565b91507fffffffffffffffffffffffffffffffffffffffffffffffffffffffffffffffff820361362a576136296135be565b5b600182019050919050565b7f41756374696f6e20686173206e6f7420656e6465642079657400000000000000600082015250565b600061366b601983613097565b915061367682613635565b602082019050919050565b6000602082019050818103600083015261369a8161365e565b9050919050565b7f596f7520617265206e6f74207468652068696768657374206269646465720000600082015250565b60006136d7601e83613097565b91506136e2826136a1565b602082019050919050565b60006020820190508181036000830152613706816136ca565b9050919050565b600061371882612c79565b915061372383612c79565b925082820261373181612c79565b91508282048414831517613748576137476135be565b5b5092915050565b7f4e487b7100000000000000000000000000000000000000000000000000000000600052601260045260246000fd5b600061378982612c79565b915061379483612c79565b9250826137a4576137a361374f565b5b828204905092915050565b60006137ba82612c79565b91506137c583612c79565b92508282039050818111156137dd576137dc6135be565b5b92915050565b7f596f7520617265206e6f74207468652073656c6c657200000000000000000000600082015250565b6000613819601683613097565b9150613824826137e3565b602082019050919050565b600060208201905081810360008301526138488161380c565b9050919050565b60008151905061385e81612c20565b92915050565b60006020828403121561387a57613879612be9565b5b60006138888482850161384f565b91505092915050565b7f596f7520646f6e2774206f776e20746865206974656d00000000000000000000600082015250565b60006138c7601683613097565b91506138d282613891565b602082019050919050565b600060208201905081810360008301526138f6816138ba565b9050919050565b7f5374617274696e67207072696365206d7573742062652067726561746572207460008201527f68616e2030000000000000000000000000000000000000000000000000000000602082015250565b6000613959602583613097565b9150613964826138fd565b604082019050919050565b600060208201905081810360008301526139888161394c565b9050919050565b600061399a82612c79565b91506139a583612c79565b92508282019050808211156139bd576139bc6135be565b5b92915050565b60006060820190506139d86000830186612d06565b6139e56020830185612d06565b6139f26040830184612d06565b949350505050565b7f4e487b7100000000000000000000000000000000000000000000000000000000600052603160045260246000fd5b7f496e76616c6964206665652070657263656e7461676500000000000000000000600082015250565b6000613a5f601683613097565b9150613a6a82613a29565b602082019050919050565b60006020820190508181036000830152613a8e81613a52565b9050919050565b6000819050919050565b6000613aba613ab5613ab084613a95565b612f65565b612c79565b9050919050565b613aca81613a9f565b82525050565b6000606082019050613ae56000830186612d06565b613af26020830185612cdc565b613aff6040830184613ac1565b949350505050565b7f4e6577207374617274696e67207072696365206d757374206265206c6f77657260008201527f207468616e2063757272656e7420626964000000000000000000000000000000602082015250565b6000613b63603183613097565b9150613b6e82613b07565b604082019050919050565b60006020820190508181036000830152613b9281613b56565b9050919050565b7f4269642068617320616c7265616479206265656e20706c616365640000000000600082015250565b6000613bcf601b83613097565b9150613bda82613b99565b602082019050919050565b60006020820190508181036000830152613bfe81613bc2565b9050919050565b6000604082019050613c1a6000830185612d06565b613c276020830184612d06565b939250505056fea2646970667358221220b21ae207645b37a939ef6d512bd2b86c328a90bac646f43c99f6dd1a28bbd8af64736f6c63430008140033",
  "linkReferences": {},
  "deployedLinkReferences": {}
}