{
  "_format": "hh-sol-artifact-1",
  "contractName": "AuctionHouse",
  "sourceName": "contracts/AuctionHouse.sol",
  "abi": [
    {
      "inputs": [
        {
          "internalType": "address",
          "name": "_auctionToken",
          "type": "address"
        },
        {
          "internalType": "address",
          "name": "initialAdmin",
          "type": "address"
        }
      ],
      "stateMutability": "nonpayable",
      "type": "constructor"
    },
    {
      "anonymous": false,
      "inputs": [
        {
          "indexed": false,
          "internalType": "uint256",
          "name": "auctionId",
          "type": "uint256"
        }
      ],
      "name": "AuctionCancelled",
      "type": "event"
    },
    {
      "anonymous": false,
      "inputs": [
        {
          "indexed": false,
          "internalType": "uint256",
          "name": "auctionId",
          "type": "uint256"
        },
        {
          "indexed": false,
          "internalType": "address",
          "name": "winner",
          "type": "address"
        },
        {
          "indexed": false,
          "internalType": "uint256",
          "name": "winningBid",
          "type": "uint256"
        }
      ],
      "name": "AuctionEnded",
      "type": "event"
    },
    {
      "anonymous": false,
      "inputs": [
        {
          "indexed": false,
          "internalType": "uint256",
          "name": "auctionId",
          "type": "uint256"
        },
        {
          "indexed": false,
          "internalType": "uint256",
          "name": "startingPrice",
          "type": "uint256"
        },
        {
          "indexed": false,
          "internalType": "uint256",
          "name": "endTime",
          "type": "uint256"
        }
      ],
      "name": "AuctionStarted",
      "type": "event"
    },
    {
      "anonymous": false,
      "inputs": [
        {
          "indexed": false,
          "internalType": "uint256",
          "name": "auctionId",
          "type": "uint256"
        },
        {
          "indexed": false,
          "internalType": "uint256",
          "name": "newStartingPrice",
          "type": "uint256"
        }
      ],
      "name": "AuctionUpdated",
      "type": "event"
    },
    {
      "anonymous": false,
      "inputs": [
        {
          "indexed": false,
          "internalType": "uint256",
          "name": "auctionId",
          "type": "uint256"
        },
        {
          "indexed": false,
          "internalType": "address",
          "name": "bidder",
          "type": "address"
        },
        {
          "indexed": false,
          "internalType": "uint256",
          "name": "amount",
          "type": "uint256"
        }
      ],
      "name": "BidPlaced",
      "type": "event"
    },
    {
      "anonymous": false,
      "inputs": [
        {
          "indexed": false,
          "internalType": "address",
          "name": "to",
          "type": "address"
        },
        {
          "indexed": false,
          "internalType": "uint256",
          "name": "amount",
          "type": "uint256"
        }
      ],
      "name": "FeeWithdrawn",
      "type": "event"
    },
    {
      "anonymous": false,
      "inputs": [
        {
          "indexed": false,
          "internalType": "uint256",
          "name": "auctionId",
          "type": "uint256"
        }
      ],
      "name": "ItemClaimed",
      "type": "event"
    },
    {
      "inputs": [
        {
          "internalType": "address",
          "name": "manager",
          "type": "address"
        }
      ],
      "name": "addManager",
      "outputs": [],
      "stateMutability": "nonpayable",
      "type": "function"
    },
    {
      "inputs": [],
      "name": "admin",
      "outputs": [
        {
          "internalType": "address",
          "name": "",
          "type": "address"
        }
      ],
      "stateMutability": "view",
      "type": "function"
    },
    {
      "inputs": [],
      "name": "auctionToken",
      "outputs": [
        {
          "internalType": "contract IERC20",
          "name": "",
          "type": "address"
        }
      ],
      "stateMutability": "view",
      "type": "function"
    },
    {
      "inputs": [
        {
          "internalType": "uint256",
          "name": "",
          "type": "uint256"
        }
      ],
      "name": "auctions",
      "outputs": [
        {
          "internalType": "uint256",
          "name": "auctionId",
          "type": "uint256"
        },
        {
          "internalType": "address",
          "name": "seller",
          "type": "address"
        },
        {
          "internalType": "address",
          "name": "itemContract",
          "type": "address"
        },
        {
          "internalType": "uint256",
          "name": "itemId",
          "type": "uint256"
        },
        {
          "internalType": "uint256",
          "name": "startingPrice",
          "type": "uint256"
        },
        {
          "internalType": "uint256",
          "name": "endTime",
          "type": "uint256"
        },
        {
          "internalType": "uint256",
          "name": "currentBid",
          "type": "uint256"
        },
        {
          "internalType": "address",
          "name": "currentBidder",
          "type": "address"
        }
      ],
      "stateMutability": "view",
      "type": "function"
    },
    {
      "inputs": [
        {
          "internalType": "uint256",
          "name": "auctionId",
          "type": "uint256"
        }
      ],
      "name": "cancelAuction",
      "outputs": [],
      "stateMutability": "nonpayable",
      "type": "function"
    },
    {
      "inputs": [
        {
          "internalType": "address",
          "name": "newAdmin",
          "type": "address"
        }
      ],
      "name": "changeAdmin",
      "outputs": [],
      "stateMutability": "nonpayable",
      "type": "function"
    },
    {
      "inputs": [
        {
          "internalType": "uint256",
          "name": "auctionId",
          "type": "uint256"
        }
      ],
      "name": "claimItem",
      "outputs": [],
      "stateMutability": "nonpayable",
      "type": "function"
    },
    {
      "inputs": [
        {
          "internalType": "uint256",
          "name": "auctionId",
          "type": "uint256"
        }
      ],
      "name": "endAuction",
      "outputs": [],
      "stateMutability": "nonpayable",
      "type": "function"
    },
    {
      "inputs": [],
      "name": "feePercentage",
      "outputs": [
        {
          "internalType": "uint256",
          "name": "",
          "type": "uint256"
        }
      ],
      "stateMutability": "view",
      "type": "function"
    },
    {
      "inputs": [],
      "name": "getAuctions",
      "outputs": [
        {
          "components": [
            {
              "internalType": "uint256",
              "name": "auctionId",
              "type": "uint256"
            },
            {
              "internalType": "address",
              "name": "seller",
              "type": "address"
            },
            {
              "internalType": "address",
              "name": "itemContract",
              "type": "address"
            },
            {
              "internalType": "uint256",
              "name": "itemId",
              "type": "uint256"
            },
            {
              "internalType": "uint256",
              "name": "startingPrice",
              "type": "uint256"
            },
            {
              "internalType": "uint256",
              "name": "endTime",
              "type": "uint256"
            },
            {
              "internalType": "uint256",
              "name": "currentBid",
              "type": "uint256"
            },
            {
              "internalType": "address",
              "name": "currentBidder",
              "type": "address"
            }
          ],
          "internalType": "struct AuctionHouse.Auction[]",
          "name": "",
          "type": "tuple[]"
        }
      ],
      "stateMutability": "view",
      "type": "function"
    },
    {
      "inputs": [
        {
          "internalType": "address",
          "name": "seller",
          "type": "address"
        }
      ],
      "name": "getAuctionsBySeller",
      "outputs": [
        {
          "components": [
            {
              "internalType": "uint256",
              "name": "auctionId",
              "type": "uint256"
            },
            {
              "internalType": "address",
              "name": "seller",
              "type": "address"
            },
            {
              "internalType": "address",
              "name": "itemContract",
              "type": "address"
            },
            {
              "internalType": "uint256",
              "name": "itemId",
              "type": "uint256"
            },
            {
              "internalType": "uint256",
              "name": "startingPrice",
              "type": "uint256"
            },
            {
              "internalType": "uint256",
              "name": "endTime",
              "type": "uint256"
            },
            {
              "internalType": "uint256",
              "name": "currentBid",
              "type": "uint256"
            },
            {
              "internalType": "address",
              "name": "currentBidder",
              "type": "address"
            }
          ],
          "internalType": "struct AuctionHouse.Auction[]",
          "name": "",
          "type": "tuple[]"
        }
      ],
      "stateMutability": "view",
      "type": "function"
    },
    {
      "inputs": [],
      "name": "getFees",
      "outputs": [
        {
          "internalType": "uint256",
          "name": "",
          "type": "uint256"
        }
      ],
      "stateMutability": "view",
      "type": "function"
    },
    {
      "inputs": [],
      "name": "getManagers",
      "outputs": [
        {
          "internalType": "address[]",
          "name": "",
          "type": "address[]"
        }
      ],
      "stateMutability": "view",
      "type": "function"
    },
    {
      "inputs": [
        {
          "internalType": "address",
          "name": "addr",
          "type": "address"
        }
      ],
      "name": "isManager",
      "outputs": [
        {
          "internalType": "bool",
          "name": "",
          "type": "bool"
        }
      ],
      "stateMutability": "view",
      "type": "function"
    },
    {
      "inputs": [
        {
          "internalType": "uint256",
          "name": "auctionId",
          "type": "uint256"
        },
        {
          "internalType": "uint256",
          "name": "newStartingPrice",
          "type": "uint256"
        }
      ],
      "name": "lowerStartingPrice",
      "outputs": [],
      "stateMutability": "nonpayable",
      "type": "function"
    },
    {
      "inputs": [
        {
          "internalType": "uint256",
          "name": "",
          "type": "uint256"
        }
      ],
      "name": "managers",
      "outputs": [
        {
          "internalType": "address",
          "name": "",
          "type": "address"
        }
      ],
      "stateMutability": "view",
      "type": "function"
    },
    {
      "inputs": [
        {
          "internalType": "uint256",
          "name": "auctionId",
          "type": "uint256"
        },
        {
          "internalType": "uint256",
          "name": "amount",
          "type": "uint256"
        }
      ],
      "name": "placeBid",
      "outputs": [],
      "stateMutability": "nonpayable",
      "type": "function"
    },
    {
      "inputs": [
        {
          "internalType": "address",
          "name": "manager",
          "type": "address"
        }
      ],
      "name": "removeManager",
      "outputs": [],
      "stateMutability": "nonpayable",
      "type": "function"
    },
    {
      "inputs": [
        {
          "internalType": "uint256",
          "name": "_feePercentage",
          "type": "uint256"
        }
      ],
      "name": "setFeePercentage",
      "outputs": [],
      "stateMutability": "nonpayable",
      "type": "function"
    },
    {
      "inputs": [
        {
          "internalType": "address",
          "name": "itemContract",
          "type": "address"
        },
        {
          "internalType": "uint256",
          "name": "itemId",
          "type": "uint256"
        },
        {
          "internalType": "uint256",
          "name": "startingPrice",
          "type": "uint256"
        },
        {
          "internalType": "uint256",
          "name": "duration",
          "type": "uint256"
        }
      ],
      "name": "startAuction",
      "outputs": [],
      "stateMutability": "nonpayable",
      "type": "function"
    },
    {
      "inputs": [
        {
          "internalType": "uint256",
          "name": "amount",
          "type": "uint256"
        }
      ],
      "name": "withdrawFees",
      "outputs": [],
      "stateMutability": "nonpayable",
      "type": "function"
    }
  ],
  "bytecode": "0x60806040526000805560fa6002553480156200001a57600080fd5b5060405162003f9b38038062003f9b833981810160405281019062000040919062000134565b81600160006101000a81548173ffffffffffffffffffffffffffffffffffffffff021916908373ffffffffffffffffffffffffffffffffffffffff16021790555080600360006101000a81548173ffffffffffffffffffffffffffffffffffffffff021916908373ffffffffffffffffffffffffffffffffffffffff16021790555050506200017b565b600080fd5b600073ffffffffffffffffffffffffffffffffffffffff82169050919050565b6000620000fc82620000cf565b9050919050565b6200010e81620000ef565b81146200011a57600080fd5b50565b6000815190506200012e8162000103565b92915050565b600080604083850312156200014e576200014d620000ca565b5b60006200015e858286016200011d565b925050602062000171858286016200011d565b9150509250929050565b613e10806200018b6000396000f3fe608060405234801561001057600080fd5b50600436106101375760003560e01c80639c166273116100b8578063b9a2de3a1161007c578063b9a2de3a14610329578063bf98065c14610345578063d7c0691914610361578063db8d55f11461037f578063f3ae24151461039d578063f851a440146103cd57610137565b80639c16627314610299578063a001ecdd146102b5578063a8d088bb146102d3578063ac18de43146102f1578063ae06c1b71461030d57610137565b806375e90561116100ff57806375e90561146101f75780637da393e0146102275780638f2839701461024357806396b5a7551461025f57806399fdb3201461027b57610137565b80632d06177a1461013c5780633d39c26014610158578063571a26a01461018857806357c90de5146101bf5780635e318e07146101db575b600080fd5b61015660048036038101906101519190612d27565b6103eb565b005b610172600480360381019061016d9190612d8a565b61052a565b60405161017f9190612dc6565b60405180910390f35b6101a2600480360381019061019d9190612d8a565b610569565b6040516101b6989796959493929190612df0565b60405180910390f35b6101d960048036038101906101d49190612e6e565b610611565b005b6101f560048036038101906101f09190612d8a565b610a52565b005b610211600480360381019061020c9190612d27565b610cf7565b60405161021e919061301e565b60405180910390f35b610241600480360381019061023c9190612d8a565b611018565b005b61025d60048036038101906102589190612d27565b611438565b005b61027960048036038101906102749190612d8a565b61150c565b005b610283611973565b604051610290919061309f565b60405180910390f35b6102b360048036038101906102ae91906130ba565b611999565b005b6102bd611d3f565b6040516102ca9190613121565b60405180910390f35b6102db611d45565b6040516102e891906131eb565b60405180910390f35b61030b60048036038101906103069190612d27565b611dd3565b005b61032760048036038101906103229190612d8a565b611ff3565b005b610343600480360381019061033e9190612d8a565b6120e2565b005b61035f600480360381019061035a9190612e6e565b61261c565b005b6103696128d2565b604051610376919061301e565b60405180910390f35b610387612ac6565b6040516103949190613121565b60405180910390f35b6103b760048036038101906103b29190612d27565b612b69565b6040516103c49190613228565b60405180910390f35b6103d5612c17565b6040516103e29190612dc6565b60405180910390f35b600360009054906101000a900473ffffffffffffffffffffffffffffffffffffffff1673ffffffffffffffffffffffffffffffffffffffff163373ffffffffffffffffffffffffffffffffffffffff161461047b576040517f08c379a0000000000000000000000000000000000000000000000000000000008152600401610472906132a0565b60405180910390fd5b61048481612b69565b156104c4576040517f08c379a00000000000000000000000000000000000000000000000000000000081526004016104bb9061330c565b60405180910390fd5b6004819080600181540180825580915050600190039060005260206000200160009091909190916101000a81548173ffffffffffffffffffffffffffffffffffffffff021916908373ffffffffffffffffffffffffffffffffffffffff16021790555050565b6004818154811061053a57600080fd5b906000526020600020016000915054906101000a900473ffffffffffffffffffffffffffffffffffffffff1681565b60056020528060005260406000206000915090508060000154908060010160009054906101000a900473ffffffffffffffffffffffffffffffffffffffff16908060020160009054906101000a900473ffffffffffffffffffffffffffffffffffffffff16908060030154908060040154908060050154908060060154908060070160009054906101000a900473ffffffffffffffffffffffffffffffffffffffff16905088565b81600073ffffffffffffffffffffffffffffffffffffffff166005600083815260200190815260200160002060010160009054906101000a900473ffffffffffffffffffffffffffffffffffffffff1673ffffffffffffffffffffffffffffffffffffffff16036106b7576040517f08c379a00000000000000000000000000000000000000000000000000000000081526004016106ae90613378565b60405180910390fd5b8260056000828152602001908152602001600020600501544210610710576040517f08c379a0000000000000000000000000000000000000000000000000000000008152600401610707906133e4565b60405180910390fd5b60006005600086815260200190815260200160002090508060060154841161076d576040517f08c379a000000000000000000000000000000000000000000000000000000000815260040161076490613476565b60405180910390fd5b8060070160009054906101000a900473ffffffffffffffffffffffffffffffffffffffff1673ffffffffffffffffffffffffffffffffffffffff163373ffffffffffffffffffffffffffffffffffffffff16036107ff576040517f08c379a00000000000000000000000000000000000000000000000000000000081526004016107f6906134e2565b60405180910390fd5b600160009054906101000a900473ffffffffffffffffffffffffffffffffffffffff1673ffffffffffffffffffffffffffffffffffffffff166323b872dd3330876040518463ffffffff1660e01b815260040161085e93929190613502565b6020604051808303816000875af115801561087d573d6000803e3d6000fd5b505050506040513d601f19601f820116820180604052508101906108a19190613565565b50600073ffffffffffffffffffffffffffffffffffffffff168160070160009054906101000a900473ffffffffffffffffffffffffffffffffffffffff1673ffffffffffffffffffffffffffffffffffffffff16146109c457600160009054906101000a900473ffffffffffffffffffffffffffffffffffffffff1673ffffffffffffffffffffffffffffffffffffffff1663a9059cbb8260070160009054906101000a900473ffffffffffffffffffffffffffffffffffffffff1683600601546040518363ffffffff1660e01b815260040161097f929190613592565b6020604051808303816000875af115801561099e573d6000803e3d6000fd5b505050506040513d601f19601f820116820180604052508101906109c29190613565565b505b838160060181905550338160070160006101000a81548173ffffffffffffffffffffffffffffffffffffffff021916908373ffffffffffffffffffffffffffffffffffffffff1602179055507f0e54eff26401bf69b81b26f60bd85ef47f5d85275c1d268d84f68d6897431c47853386604051610a43939291906135bb565b60405180910390a15050505050565b600360009054906101000a900473ffffffffffffffffffffffffffffffffffffffff1673ffffffffffffffffffffffffffffffffffffffff163373ffffffffffffffffffffffffffffffffffffffff161480610ab35750610ab233612b69565b5b610af2576040517f08c379a0000000000000000000000000000000000000000000000000000000008152600401610ae99061363e565b60405180910390fd5b6000600160009054906101000a900473ffffffffffffffffffffffffffffffffffffffff1673ffffffffffffffffffffffffffffffffffffffff166370a08231306040518263ffffffff1660e01b8152600401610b4f9190612dc6565b602060405180830381865afa158015610b6c573d6000803e3d6000fd5b505050506040513d601f19601f82011682018060405250810190610b909190613673565b905080821115610bd5576040517f08c379a0000000000000000000000000000000000000000000000000000000008152600401610bcc906136ec565b60405180910390fd5b600160009054906101000a900473ffffffffffffffffffffffffffffffffffffffff1673ffffffffffffffffffffffffffffffffffffffff1663a9059cbb600360009054906101000a900473ffffffffffffffffffffffffffffffffffffffff16846040518363ffffffff1660e01b8152600401610c54929190613592565b6020604051808303816000875af1158015610c73573d6000803e3d6000fd5b505050506040513d601f19601f82011682018060405250810190610c979190613565565b507f78473f3f373f7673597f4f0fa5873cb4d375fea6d4339ad6b56dbd411513cb3f600360009054906101000a900473ffffffffffffffffffffffffffffffffffffffff1683604051610ceb929190613592565b60405180910390a15050565b60606000805467ffffffffffffffff811115610d1657610d1561370c565b5b604051908082528060200260200182016040528015610d4f57816020015b610d3c612c3d565b815260200190600190039081610d345790505b5090506000805b600054811015610f5c578473ffffffffffffffffffffffffffffffffffffffff166005600083815260200190815260200160002060010160009054906101000a900473ffffffffffffffffffffffffffffffffffffffff1673ffffffffffffffffffffffffffffffffffffffff1603610f49576005600082815260200190815260200160002060405180610100016040529081600082015481526020016001820160009054906101000a900473ffffffffffffffffffffffffffffffffffffffff1673ffffffffffffffffffffffffffffffffffffffff1673ffffffffffffffffffffffffffffffffffffffff1681526020016002820160009054906101000a900473ffffffffffffffffffffffffffffffffffffffff1673ffffffffffffffffffffffffffffffffffffffff1673ffffffffffffffffffffffffffffffffffffffff168152602001600382015481526020016004820154815260200160058201548152602001600682015481526020016007820160009054906101000a900473ffffffffffffffffffffffffffffffffffffffff1673ffffffffffffffffffffffffffffffffffffffff1673ffffffffffffffffffffffffffffffffffffffff1681525050838381518110610f2f57610f2e61373b565b5b60200260200101819052508180610f4590613799565b9250505b8080610f5490613799565b915050610d56565b5060008167ffffffffffffffff811115610f7957610f7861370c565b5b604051908082528060200260200182016040528015610fb257816020015b610f9f612c3d565b815260200190600190039081610f975790505b50905060005b8281101561100c57838181518110610fd357610fd261373b565b5b6020026020010151828281518110610fee57610fed61373b565b5b6020026020010181905250808061100490613799565b915050610fb8565b50809350505050919050565b80600073ffffffffffffffffffffffffffffffffffffffff166005600083815260200190815260200160002060010160009054906101000a900473ffffffffffffffffffffffffffffffffffffffff1673ffffffffffffffffffffffffffffffffffffffff16036110be576040517f08c379a00000000000000000000000000000000000000000000000000000000081526004016110b590613378565b60405180910390fd5b6000600560008481526020019081526020016000209050806005015442101561111c576040517f08c379a00000000000000000000000000000000000000000000000000000000081526004016111139061382d565b60405180910390fd5b8060070160009054906101000a900473ffffffffffffffffffffffffffffffffffffffff1673ffffffffffffffffffffffffffffffffffffffff163373ffffffffffffffffffffffffffffffffffffffff16146111ae576040517f08c379a00000000000000000000000000000000000000000000000000000000081526004016111a590613899565b60405180910390fd5b60008160020160009054906101000a900473ffffffffffffffffffffffffffffffffffffffff169050600061271060025484600601546111ee91906138b9565b6111f8919061392a565b9050600081846006015461120c919061395b565b90508273ffffffffffffffffffffffffffffffffffffffff166323b872dd303387600301546040518463ffffffff1660e01b815260040161124f93929190613502565b600060405180830381600087803b15801561126957600080fd5b505af115801561127d573d6000803e3d6000fd5b50505050600160009054906101000a900473ffffffffffffffffffffffffffffffffffffffff1673ffffffffffffffffffffffffffffffffffffffff1663a9059cbb8560010160009054906101000a900473ffffffffffffffffffffffffffffffffffffffff16836040518363ffffffff1660e01b8152600401611302929190613592565b6020604051808303816000875af1158015611321573d6000803e3d6000fd5b505050506040513d601f19601f820116820180604052508101906113459190613565565b507f5d9121d0d49467544ab0278e267daa7661304e0bd2994dbbc9d2922b58133c60866040516113759190613121565b60405180910390a1600560008781526020019081526020016000206000808201600090556001820160006101000a81549073ffffffffffffffffffffffffffffffffffffffff02191690556002820160006101000a81549073ffffffffffffffffffffffffffffffffffffffff021916905560038201600090556004820160009055600582016000905560068201600090556007820160006101000a81549073ffffffffffffffffffffffffffffffffffffffff02191690555050505050505050565b600360009054906101000a900473ffffffffffffffffffffffffffffffffffffffff1673ffffffffffffffffffffffffffffffffffffffff163373ffffffffffffffffffffffffffffffffffffffff16146114c8576040517f08c379a00000000000000000000000000000000000000000000000000000000081526004016114bf906132a0565b60405180910390fd5b80600360006101000a81548173ffffffffffffffffffffffffffffffffffffffff021916908373ffffffffffffffffffffffffffffffffffffffff16021790555050565b80600073ffffffffffffffffffffffffffffffffffffffff166005600083815260200190815260200160002060010160009054906101000a900473ffffffffffffffffffffffffffffffffffffffff1673ffffffffffffffffffffffffffffffffffffffff16036115b2576040517f08c379a00000000000000000000000000000000000000000000000000000000081526004016115a990613378565b60405180910390fd5b60006005600084815260200190815260200160002090508060010160009054906101000a900473ffffffffffffffffffffffffffffffffffffffff1673ffffffffffffffffffffffffffffffffffffffff163373ffffffffffffffffffffffffffffffffffffffff161461165b576040517f08c379a0000000000000000000000000000000000000000000000000000000008152600401611652906139db565b60405180910390fd5b806005015442106116a1576040517f08c379a0000000000000000000000000000000000000000000000000000000008152600401611698906133e4565b60405180910390fd5b60008160020160009054906101000a900473ffffffffffffffffffffffffffffffffffffffff1690508073ffffffffffffffffffffffffffffffffffffffff166323b872dd308460010160009054906101000a900473ffffffffffffffffffffffffffffffffffffffff1685600301546040518463ffffffff1660e01b815260040161172f93929190613502565b600060405180830381600087803b15801561174957600080fd5b505af115801561175d573d6000803e3d6000fd5b50505050600073ffffffffffffffffffffffffffffffffffffffff168260070160009054906101000a900473ffffffffffffffffffffffffffffffffffffffff1673ffffffffffffffffffffffffffffffffffffffff161461188357600160009054906101000a900473ffffffffffffffffffffffffffffffffffffffff1673ffffffffffffffffffffffffffffffffffffffff1663a9059cbb8360070160009054906101000a900473ffffffffffffffffffffffffffffffffffffffff1684600601546040518363ffffffff1660e01b815260040161183e929190613592565b6020604051808303816000875af115801561185d573d6000803e3d6000fd5b505050506040513d601f19601f820116820180604052508101906118819190613565565b505b7f2809c7e17bf978fbc7194c0a694b638c4215e9140cacc6c38ca36010b45697df846040516118b29190613121565b60405180910390a1600560008581526020019081526020016000206000808201600090556001820160006101000a81549073ffffffffffffffffffffffffffffffffffffffff02191690556002820160006101000a81549073ffffffffffffffffffffffffffffffffffffffff021916905560038201600090556004820160009055600582016000905560068201600090556007820160006101000a81549073ffffffffffffffffffffffffffffffffffffffff0219169055505050505050565b600160009054906101000a900473ffffffffffffffffffffffffffffffffffffffff1681565b60008490508073ffffffffffffffffffffffffffffffffffffffff16636352211e856040518263ffffffff1660e01b81526004016119d79190613121565b602060405180830381865afa1580156119f4573d6000803e3d6000fd5b505050506040513d601f19601f82011682018060405250810190611a189190613a10565b73ffffffffffffffffffffffffffffffffffffffff163273ffffffffffffffffffffffffffffffffffffffff1614611a85576040517f08c379a0000000000000000000000000000000000000000000000000000000008152600401611a7c90613a89565b60405180910390fd5b60008311611ac8576040517f08c379a0000000000000000000000000000000000000000000000000000000008152600401611abf90613b1b565b60405180910390fd5b8073ffffffffffffffffffffffffffffffffffffffff166323b872dd3230876040518463ffffffff1660e01b8152600401611b0593929190613502565b600060405180830381600087803b158015611b1f57600080fd5b505af1158015611b33573d6000803e3d6000fd5b505050506000806000815480929190611b4b90613799565b91905055905060008342611b5f9190613b3b565b90506040518061010001604052808381526020013273ffffffffffffffffffffffffffffffffffffffff1681526020018873ffffffffffffffffffffffffffffffffffffffff168152602001878152602001868152602001828152602001868152602001600073ffffffffffffffffffffffffffffffffffffffff16815250600560008481526020019081526020016000206000820151816000015560208201518160010160006101000a81548173ffffffffffffffffffffffffffffffffffffffff021916908373ffffffffffffffffffffffffffffffffffffffff16021790555060408201518160020160006101000a81548173ffffffffffffffffffffffffffffffffffffffff021916908373ffffffffffffffffffffffffffffffffffffffff160217905550606082015181600301556080820151816004015560a0820151816005015560c0820151816006015560e08201518160070160006101000a81548173ffffffffffffffffffffffffffffffffffffffff021916908373ffffffffffffffffffffffffffffffffffffffff1602179055509050507f44c53be110c6aa83aa83cd02e351ed172359268272ee1b5d31c0fe48db35c6c7828683604051611d2e93929190613b6f565b60405180910390a150505050505050565b60025481565b60606004805480602002602001604051908101604052809291908181526020018280548015611dc957602002820191906000526020600020905b8160009054906101000a900473ffffffffffffffffffffffffffffffffffffffff1673ffffffffffffffffffffffffffffffffffffffff1681526020019060010190808311611d7f575b5050505050905090565b600360009054906101000a900473ffffffffffffffffffffffffffffffffffffffff1673ffffffffffffffffffffffffffffffffffffffff163373ffffffffffffffffffffffffffffffffffffffff1614611e63576040517f08c379a0000000000000000000000000000000000000000000000000000000008152600401611e5a906132a0565b60405180910390fd5b60005b600480549050811015611fef578173ffffffffffffffffffffffffffffffffffffffff1660048281548110611e9e57611e9d61373b565b5b9060005260206000200160009054906101000a900473ffffffffffffffffffffffffffffffffffffffff1673ffffffffffffffffffffffffffffffffffffffff1603611fdc5760046001600480549050611ef8919061395b565b81548110611f0957611f0861373b565b5b9060005260206000200160009054906101000a900473ffffffffffffffffffffffffffffffffffffffff1660048281548110611f4857611f4761373b565b5b9060005260206000200160006101000a81548173ffffffffffffffffffffffffffffffffffffffff021916908373ffffffffffffffffffffffffffffffffffffffff1602179055506004805480611fa257611fa1613ba6565b5b6001900381819060005260206000200160006101000a81549073ffffffffffffffffffffffffffffffffffffffff02191690559055611fef565b8080611fe790613799565b915050611e66565b5050565b600360009054906101000a900473ffffffffffffffffffffffffffffffffffffffff1673ffffffffffffffffffffffffffffffffffffffff163373ffffffffffffffffffffffffffffffffffffffff161480612054575061205333612b69565b5b612093576040517f08c379a000000000000000000000000000000000000000000000000000000000815260040161208a9061363e565b60405180910390fd5b6127108111156120d8576040517f08c379a00000000000000000000000000000000000000000000000000000000081526004016120cf90613c21565b60405180910390fd5b8060028190555050565b80600073ffffffffffffffffffffffffffffffffffffffff166005600083815260200190815260200160002060010160009054906101000a900473ffffffffffffffffffffffffffffffffffffffff1673ffffffffffffffffffffffffffffffffffffffff1603612188576040517f08c379a000000000000000000000000000000000000000000000000000000000815260040161217f90613378565b60405180910390fd5b60006005600084815260200190815260200160002090508060010160009054906101000a900473ffffffffffffffffffffffffffffffffffffffff1673ffffffffffffffffffffffffffffffffffffffff163373ffffffffffffffffffffffffffffffffffffffff1614612231576040517f08c379a0000000000000000000000000000000000000000000000000000000008152600401612228906139db565b60405180910390fd5b60008160070160009054906101000a900473ffffffffffffffffffffffffffffffffffffffff16905060008260060154905060006127106002548361227691906138b9565b612280919061392a565b905060008183612290919061395b565b905060008560020160009054906101000a900473ffffffffffffffffffffffffffffffffffffffff169050600073ffffffffffffffffffffffffffffffffffffffff168573ffffffffffffffffffffffffffffffffffffffff1614612467578073ffffffffffffffffffffffffffffffffffffffff166323b872dd308789600301546040518463ffffffff1660e01b815260040161233093929190613502565b600060405180830381600087803b15801561234a57600080fd5b505af115801561235e573d6000803e3d6000fd5b50505050600160009054906101000a900473ffffffffffffffffffffffffffffffffffffffff1673ffffffffffffffffffffffffffffffffffffffff1663a9059cbb8760010160009054906101000a900473ffffffffffffffffffffffffffffffffffffffff16846040518363ffffffff1660e01b81526004016123e3929190613592565b6020604051808303816000875af1158015612402573d6000803e3d6000fd5b505050506040513d601f19601f820116820180604052508101906124269190613565565b507fd2aa34a4fdbbc6dff6a3e56f46e0f3ae2a31d7785ff3487aa5c95c642acea50188868660405161245a939291906135bb565b60405180910390a161255f565b8073ffffffffffffffffffffffffffffffffffffffff166323b872dd308860010160009054906101000a900473ffffffffffffffffffffffffffffffffffffffff1689600301546040518463ffffffff1660e01b81526004016124cc93929190613502565b600060405180830381600087803b1580156124e657600080fd5b505af11580156124fa573d6000803e3d6000fd5b505050507fd2aa34a4fdbbc6dff6a3e56f46e0f3ae2a31d7785ff3487aa5c95c642acea501888760010160009054906101000a900473ffffffffffffffffffffffffffffffffffffffff16600060405161255693929190613c7c565b60405180910390a15b600560008981526020019081526020016000206000808201600090556001820160006101000a81549073ffffffffffffffffffffffffffffffffffffffff02191690556002820160006101000a81549073ffffffffffffffffffffffffffffffffffffffff021916905560038201600090556004820160009055600582016000905560068201600090556007820160006101000a81549073ffffffffffffffffffffffffffffffffffffffff021916905550505050505050505050565b81600073ffffffffffffffffffffffffffffffffffffffff166005600083815260200190815260200160002060010160009054906101000a900473ffffffffffffffffffffffffffffffffffffffff1673ffffffffffffffffffffffffffffffffffffffff16036126c2576040517f08c379a00000000000000000000000000000000000000000000000000000000081526004016126b990613378565b60405180910390fd5b60006005600085815260200190815260200160002090508060010160009054906101000a900473ffffffffffffffffffffffffffffffffffffffff1673ffffffffffffffffffffffffffffffffffffffff163373ffffffffffffffffffffffffffffffffffffffff161461276b576040517f08c379a0000000000000000000000000000000000000000000000000000000008152600401612762906139db565b60405180910390fd5b806005015442106127b1576040517f08c379a00000000000000000000000000000000000000000000000000000000081526004016127a8906133e4565b60405180910390fd5b806006015483106127f7576040517f08c379a00000000000000000000000000000000000000000000000000000000081526004016127ee90613d25565b60405180910390fd5b600073ffffffffffffffffffffffffffffffffffffffff168160070160009054906101000a900473ffffffffffffffffffffffffffffffffffffffff1673ffffffffffffffffffffffffffffffffffffffff161461288a576040517f08c379a000000000000000000000000000000000000000000000000000000000815260040161288190613d91565b60405180910390fd5b7f95f83d4dfba2e4f3f99527a8e8a18980457125d95df460c1601811c0c961528f84846040516128bb929190613db1565b60405180910390a182816004018190555050505050565b60606000805467ffffffffffffffff8111156128f1576128f061370c565b5b60405190808252806020026020018201604052801561292a57816020015b612917612c3d565b81526020019060019003908161290f5790505b50905060005b600054811015612abe576005600082815260200190815260200160002060405180610100016040529081600082015481526020016001820160009054906101000a900473ffffffffffffffffffffffffffffffffffffffff1673ffffffffffffffffffffffffffffffffffffffff1673ffffffffffffffffffffffffffffffffffffffff1681526020016002820160009054906101000a900473ffffffffffffffffffffffffffffffffffffffff1673ffffffffffffffffffffffffffffffffffffffff1673ffffffffffffffffffffffffffffffffffffffff168152602001600382015481526020016004820154815260200160058201548152602001600682015481526020016007820160009054906101000a900473ffffffffffffffffffffffffffffffffffffffff1673ffffffffffffffffffffffffffffffffffffffff1673ffffffffffffffffffffffffffffffffffffffff1681525050828281518110612aa057612a9f61373b565b5b60200260200101819052508080612ab690613799565b915050612930565b508091505090565b6000600160009054906101000a900473ffffffffffffffffffffffffffffffffffffffff1673ffffffffffffffffffffffffffffffffffffffff166370a08231306040518263ffffffff1660e01b8152600401612b239190612dc6565b602060405180830381865afa158015612b40573d6000803e3d6000fd5b505050506040513d601f19601f82011682018060405250810190612b649190613673565b905090565b600080600090505b600480549050811015612c0c578273ffffffffffffffffffffffffffffffffffffffff1660048281548110612ba957612ba861373b565b5b9060005260206000200160009054906101000a900473ffffffffffffffffffffffffffffffffffffffff1673ffffffffffffffffffffffffffffffffffffffff1603612bf9576001915050612c12565b8080612c0490613799565b915050612b71565b50600090505b919050565b600360009054906101000a900473ffffffffffffffffffffffffffffffffffffffff1681565b60405180610100016040528060008152602001600073ffffffffffffffffffffffffffffffffffffffff168152602001600073ffffffffffffffffffffffffffffffffffffffff16815260200160008152602001600081526020016000815260200160008152602001600073ffffffffffffffffffffffffffffffffffffffff1681525090565b600080fd5b600073ffffffffffffffffffffffffffffffffffffffff82169050919050565b6000612cf482612cc9565b9050919050565b612d0481612ce9565b8114612d0f57600080fd5b50565b600081359050612d2181612cfb565b92915050565b600060208284031215612d3d57612d3c612cc4565b5b6000612d4b84828501612d12565b91505092915050565b6000819050919050565b612d6781612d54565b8114612d7257600080fd5b50565b600081359050612d8481612d5e565b92915050565b600060208284031215612da057612d9f612cc4565b5b6000612dae84828501612d75565b91505092915050565b612dc081612ce9565b82525050565b6000602082019050612ddb6000830184612db7565b92915050565b612dea81612d54565b82525050565b600061010082019050612e06600083018b612de1565b612e13602083018a612db7565b612e206040830189612db7565b612e2d6060830188612de1565b612e3a6080830187612de1565b612e4760a0830186612de1565b612e5460c0830185612de1565b612e6160e0830184612db7565b9998505050505050505050565b60008060408385031215612e8557612e84612cc4565b5b6000612e9385828601612d75565b9250506020612ea485828601612d75565b9150509250929050565b600081519050919050565b600082825260208201905092915050565b6000819050602082019050919050565b612ee381612d54565b82525050565b612ef281612ce9565b82525050565b61010082016000820151612f0f6000850182612eda565b506020820151612f226020850182612ee9565b506040820151612f356040850182612ee9565b506060820151612f486060850182612eda565b506080820151612f5b6080850182612eda565b5060a0820151612f6e60a0850182612eda565b5060c0820151612f8160c0850182612eda565b5060e0820151612f9460e0850182612ee9565b50505050565b6000612fa68383612ef8565b6101008301905092915050565b6000602082019050919050565b6000612fcb82612eae565b612fd58185612eb9565b9350612fe083612eca565b8060005b83811015613011578151612ff88882612f9a565b975061300383612fb3565b925050600181019050612fe4565b5085935050505092915050565b600060208201905081810360008301526130388184612fc0565b905092915050565b6000819050919050565b600061306561306061305b84612cc9565b613040565b612cc9565b9050919050565b60006130778261304a565b9050919050565b60006130898261306c565b9050919050565b6130998161307e565b82525050565b60006020820190506130b46000830184613090565b92915050565b600080600080608085870312156130d4576130d3612cc4565b5b60006130e287828801612d12565b94505060206130f387828801612d75565b935050604061310487828801612d75565b925050606061311587828801612d75565b91505092959194509250565b60006020820190506131366000830184612de1565b92915050565b600081519050919050565b600082825260208201905092915050565b6000819050602082019050919050565b60006131748383612ee9565b60208301905092915050565b6000602082019050919050565b60006131988261313c565b6131a28185613147565b93506131ad83613158565b8060005b838110156131de5781516131c58882613168565b97506131d083613180565b9250506001810190506131b1565b5085935050505092915050565b60006020820190508181036000830152613205818461318d565b905092915050565b60008115159050919050565b6132228161320d565b82525050565b600060208201905061323d6000830184613219565b92915050565b600082825260208201905092915050565b7f4e6f7420616e2061646d696e0000000000000000000000000000000000000000600082015250565b600061328a600c83613243565b915061329582613254565b602082019050919050565b600060208201905081810360008301526132b98161327d565b9050919050565b7f4164647265737320697320616c72656164792061206d616e6167657200000000600082015250565b60006132f6601c83613243565b9150613301826132c0565b602082019050919050565b60006020820190508181036000830152613325816132e9565b9050919050565b7f41756374696f6e20646f6573206e6f7420657869737400000000000000000000600082015250565b6000613362601683613243565b915061336d8261332c565b602082019050919050565b6000602082019050818103600083015261339181613355565b9050919050565b7f41756374696f6e2068617320656e646564000000000000000000000000000000600082015250565b60006133ce601183613243565b91506133d982613398565b602082019050919050565b600060208201905081810360008301526133fd816133c1565b9050919050565b7f426964206d75737420626520686967686572207468616e20746865206375727260008201527f656e742062696400000000000000000000000000000000000000000000000000602082015250565b6000613460602783613243565b915061346b82613404565b604082019050919050565b6000602082019050818103600083015261348f81613453565b9050919050565b7f596f7520616c7265616479206861766520746865206869676865737420626964600082015250565b60006134cc602083613243565b91506134d782613496565b602082019050919050565b600060208201905081810360008301526134fb816134bf565b9050919050565b60006060820190506135176000830186612db7565b6135246020830185612db7565b6135316040830184612de1565b949350505050565b6135428161320d565b811461354d57600080fd5b50565b60008151905061355f81613539565b92915050565b60006020828403121561357b5761357a612cc4565b5b600061358984828501613550565b91505092915050565b60006040820190506135a76000830185612db7565b6135b46020830184612de1565b9392505050565b60006060820190506135d06000830186612de1565b6135dd6020830185612db7565b6135ea6040830184612de1565b949350505050565b7f4e6f7420616e2061646d696e206f72206d616e61676572000000000000000000600082015250565b6000613628601783613243565b9150613633826135f2565b602082019050919050565b600060208201905081810360008301526136578161361b565b9050919050565b60008151905061366d81612d5e565b92915050565b60006020828403121561368957613688612cc4565b5b60006136978482850161365e565b91505092915050565b7f416d6f756e742065786365656473206665657300000000000000000000000000600082015250565b60006136d6601383613243565b91506136e1826136a0565b602082019050919050565b60006020820190508181036000830152613705816136c9565b9050919050565b7f4e487b7100000000000000000000000000000000000000000000000000000000600052604160045260246000fd5b7f4e487b7100000000000000000000000000000000000000000000000000000000600052603260045260246000fd5b7f4e487b7100000000000000000000000000000000000000000000000000000000600052601160045260246000fd5b60006137a482612d54565b91507fffffffffffffffffffffffffffffffffffffffffffffffffffffffffffffffff82036137d6576137d561376a565b5b600182019050919050565b7f41756374696f6e20686173206e6f7420656e6465642079657400000000000000600082015250565b6000613817601983613243565b9150613822826137e1565b602082019050919050565b600060208201905081810360008301526138468161380a565b9050919050565b7f596f7520617265206e6f74207468652068696768657374206269646465720000600082015250565b6000613883601e83613243565b915061388e8261384d565b602082019050919050565b600060208201905081810360008301526138b281613876565b9050919050565b60006138c482612d54565b91506138cf83612d54565b92508282026138dd81612d54565b915082820484148315176138f4576138f361376a565b5b5092915050565b7f4e487b7100000000000000000000000000000000000000000000000000000000600052601260045260246000fd5b600061393582612d54565b915061394083612d54565b9250826139505761394f6138fb565b5b828204905092915050565b600061396682612d54565b915061397183612d54565b92508282039050818111156139895761398861376a565b5b92915050565b7f596f7520617265206e6f74207468652073656c6c657200000000000000000000600082015250565b60006139c5601683613243565b91506139d08261398f565b602082019050919050565b600060208201905081810360008301526139f4816139b8565b9050919050565b600081519050613a0a81612cfb565b92915050565b600060208284031215613a2657613a25612cc4565b5b6000613a34848285016139fb565b91505092915050565b7f596f7520646f6e2774206f776e20746865206974656d00000000000000000000600082015250565b6000613a73601683613243565b9150613a7e82613a3d565b602082019050919050565b60006020820190508181036000830152613aa281613a66565b9050919050565b7f5374617274696e67207072696365206d7573742062652067726561746572207460008201527f68616e2030000000000000000000000000000000000000000000000000000000602082015250565b6000613b05602583613243565b9150613b1082613aa9565b604082019050919050565b60006020820190508181036000830152613b3481613af8565b9050919050565b6000613b4682612d54565b9150613b5183612d54565b9250828201905080821115613b6957613b6861376a565b5b92915050565b6000606082019050613b846000830186612de1565b613b916020830185612de1565b613b9e6040830184612de1565b949350505050565b7f4e487b7100000000000000000000000000000000000000000000000000000000600052603160045260246000fd5b7f496e76616c6964206665652070657263656e7461676500000000000000000000600082015250565b6000613c0b601683613243565b9150613c1682613bd5565b602082019050919050565b60006020820190508181036000830152613c3a81613bfe565b9050919050565b6000819050919050565b6000613c66613c61613c5c84613c41565b613040565b612d54565b9050919050565b613c7681613c4b565b82525050565b6000606082019050613c916000830186612de1565b613c9e6020830185612db7565b613cab6040830184613c6d565b949350505050565b7f4e6577207374617274696e67207072696365206d757374206265206c6f77657260008201527f207468616e2063757272656e7420626964000000000000000000000000000000602082015250565b6000613d0f603183613243565b9150613d1a82613cb3565b604082019050919050565b60006020820190508181036000830152613d3e81613d02565b9050919050565b7f4269642068617320616c7265616479206265656e20706c616365640000000000600082015250565b6000613d7b601b83613243565b9150613d8682613d45565b602082019050919050565b60006020820190508181036000830152613daa81613d6e565b9050919050565b6000604082019050613dc66000830185612de1565b613dd36020830184612de1565b939250505056fea26469706673582212204fde7f9a91614b99ec42998951505378ba3b6f12bbf777ce3782179c181a498c64736f6c63430008140033",
  "linkReferences": {},
  "deployedLinkReferences": {}
}