{
  "_format": "hh-sol-artifact-1",
  "contractName": "AuctionHouse",
  "sourceName": "contracts/AuctionHouse.sol",
  "abi": [
    {
      "inputs": [
        {
          "internalType": "address",
          "name": "_auctionToken",
          "type": "address"
        },
        {
          "internalType": "address",
          "name": "initialAdmin",
          "type": "address"
        }
      ],
      "stateMutability": "nonpayable",
      "type": "constructor"
    },
    {
      "anonymous": false,
      "inputs": [
        {
          "indexed": false,
          "internalType": "uint256",
          "name": "auctionId",
          "type": "uint256"
        }
      ],
      "name": "AuctionCancelled",
      "type": "event"
    },
    {
      "anonymous": false,
      "inputs": [
        {
          "indexed": false,
          "internalType": "uint256",
          "name": "auctionId",
          "type": "uint256"
        },
        {
          "indexed": false,
          "internalType": "address",
          "name": "winner",
          "type": "address"
        },
        {
          "indexed": false,
          "internalType": "uint256",
          "name": "winningBid",
          "type": "uint256"
        }
      ],
      "name": "AuctionEnded",
      "type": "event"
    },
    {
      "anonymous": false,
      "inputs": [
        {
          "indexed": false,
          "internalType": "uint256",
          "name": "auctionId",
          "type": "uint256"
        },
        {
          "indexed": false,
          "internalType": "uint256",
          "name": "startingPrice",
          "type": "uint256"
        },
        {
          "indexed": false,
          "internalType": "uint256",
          "name": "endTime",
          "type": "uint256"
        }
      ],
      "name": "AuctionStarted",
      "type": "event"
    },
    {
      "anonymous": false,
      "inputs": [
        {
          "indexed": false,
          "internalType": "uint256",
          "name": "auctionId",
          "type": "uint256"
        },
        {
          "indexed": false,
          "internalType": "uint256",
          "name": "newStartingPrice",
          "type": "uint256"
        }
      ],
      "name": "AuctionUpdated",
      "type": "event"
    },
    {
      "anonymous": false,
      "inputs": [
        {
          "indexed": false,
          "internalType": "uint256",
          "name": "auctionId",
          "type": "uint256"
        },
        {
          "indexed": false,
          "internalType": "address",
          "name": "bidder",
          "type": "address"
        },
        {
          "indexed": false,
          "internalType": "uint256",
          "name": "amount",
          "type": "uint256"
        }
      ],
      "name": "BidPlaced",
      "type": "event"
    },
    {
      "anonymous": false,
      "inputs": [
        {
          "indexed": false,
          "internalType": "address",
          "name": "to",
          "type": "address"
        },
        {
          "indexed": false,
          "internalType": "uint256",
          "name": "amount",
          "type": "uint256"
        }
      ],
      "name": "FeeWithdrawn",
      "type": "event"
    },
    {
      "anonymous": false,
      "inputs": [
        {
          "indexed": false,
          "internalType": "uint256",
          "name": "auctionId",
          "type": "uint256"
        }
      ],
      "name": "ItemClaimed",
      "type": "event"
    },
    {
      "inputs": [
        {
          "internalType": "address",
          "name": "manager",
          "type": "address"
        }
      ],
      "name": "addManager",
      "outputs": [],
      "stateMutability": "nonpayable",
      "type": "function"
    },
    {
      "inputs": [],
      "name": "admin",
      "outputs": [
        {
          "internalType": "address",
          "name": "",
          "type": "address"
        }
      ],
      "stateMutability": "view",
      "type": "function"
    },
    {
      "inputs": [],
      "name": "auctionToken",
      "outputs": [
        {
          "internalType": "contract IERC20",
          "name": "",
          "type": "address"
        }
      ],
      "stateMutability": "view",
      "type": "function"
    },
    {
      "inputs": [
        {
          "internalType": "uint256",
          "name": "",
          "type": "uint256"
        }
      ],
      "name": "auctions",
      "outputs": [
        {
          "internalType": "address",
          "name": "seller",
          "type": "address"
        },
        {
          "internalType": "address",
          "name": "itemContract",
          "type": "address"
        },
        {
          "internalType": "uint256",
          "name": "itemId",
          "type": "uint256"
        },
        {
          "internalType": "uint256",
          "name": "startingPrice",
          "type": "uint256"
        },
        {
          "internalType": "uint256",
          "name": "endTime",
          "type": "uint256"
        },
        {
          "internalType": "uint256",
          "name": "currentBid",
          "type": "uint256"
        },
        {
          "internalType": "address",
          "name": "currentBidder",
          "type": "address"
        }
      ],
      "stateMutability": "view",
      "type": "function"
    },
    {
      "inputs": [
        {
          "internalType": "uint256",
          "name": "auctionId",
          "type": "uint256"
        }
      ],
      "name": "cancelAuction",
      "outputs": [],
      "stateMutability": "nonpayable",
      "type": "function"
    },
    {
      "inputs": [
        {
          "internalType": "address",
          "name": "newAdmin",
          "type": "address"
        }
      ],
      "name": "changeAdmin",
      "outputs": [],
      "stateMutability": "nonpayable",
      "type": "function"
    },
    {
      "inputs": [
        {
          "internalType": "uint256",
          "name": "auctionId",
          "type": "uint256"
        }
      ],
      "name": "claimItem",
      "outputs": [],
      "stateMutability": "nonpayable",
      "type": "function"
    },
    {
      "inputs": [
        {
          "internalType": "uint256",
          "name": "auctionId",
          "type": "uint256"
        }
      ],
      "name": "endAuction",
      "outputs": [],
      "stateMutability": "nonpayable",
      "type": "function"
    },
    {
      "inputs": [],
      "name": "feePercentage",
      "outputs": [
        {
          "internalType": "uint256",
          "name": "",
          "type": "uint256"
        }
      ],
      "stateMutability": "view",
      "type": "function"
    },
    {
      "inputs": [
        {
          "internalType": "address",
          "name": "addr",
          "type": "address"
        }
      ],
      "name": "isManager",
      "outputs": [
        {
          "internalType": "bool",
          "name": "",
          "type": "bool"
        }
      ],
      "stateMutability": "view",
      "type": "function"
    },
    {
      "inputs": [
        {
          "internalType": "uint256",
          "name": "auctionId",
          "type": "uint256"
        },
        {
          "internalType": "uint256",
          "name": "newStartingPrice",
          "type": "uint256"
        }
      ],
      "name": "lowerStartingPrice",
      "outputs": [],
      "stateMutability": "nonpayable",
      "type": "function"
    },
    {
      "inputs": [
        {
          "internalType": "uint256",
          "name": "",
          "type": "uint256"
        }
      ],
      "name": "managers",
      "outputs": [
        {
          "internalType": "address",
          "name": "",
          "type": "address"
        }
      ],
      "stateMutability": "view",
      "type": "function"
    },
    {
      "inputs": [
        {
          "internalType": "uint256",
          "name": "auctionId",
          "type": "uint256"
        },
        {
          "internalType": "uint256",
          "name": "amount",
          "type": "uint256"
        }
      ],
      "name": "placeBid",
      "outputs": [],
      "stateMutability": "nonpayable",
      "type": "function"
    },
    {
      "inputs": [
        {
          "internalType": "address",
          "name": "manager",
          "type": "address"
        }
      ],
      "name": "removeManager",
      "outputs": [],
      "stateMutability": "nonpayable",
      "type": "function"
    },
    {
      "inputs": [
        {
          "internalType": "uint256",
          "name": "_feePercentage",
          "type": "uint256"
        }
      ],
      "name": "setFeePercentage",
      "outputs": [],
      "stateMutability": "nonpayable",
      "type": "function"
    },
    {
      "inputs": [
        {
          "internalType": "address",
          "name": "itemContract",
          "type": "address"
        },
        {
          "internalType": "uint256",
          "name": "itemId",
          "type": "uint256"
        },
        {
          "internalType": "uint256",
          "name": "startingPrice",
          "type": "uint256"
        },
        {
          "internalType": "uint256",
          "name": "duration",
          "type": "uint256"
        }
      ],
      "name": "startAuction",
      "outputs": [],
      "stateMutability": "nonpayable",
      "type": "function"
    },
    {
      "inputs": [
        {
          "internalType": "uint256",
          "name": "amount",
          "type": "uint256"
        }
      ],
      "name": "withdrawFees",
      "outputs": [],
      "stateMutability": "nonpayable",
      "type": "function"
    }
  ],
  "bytecode": "0x608060405260fa6002553480156200001657600080fd5b50604051620049ce380380620049ce83398181016040528101906200003c919062000187565b620000586780c6f87e7732cab860c01b6200011a60201b60201c565b6200007467b6edc22fe047885d60c01b6200011a60201b60201c565b81600160006101000a81548173ffffffffffffffffffffffffffffffffffffffff021916908373ffffffffffffffffffffffffffffffffffffffff160217905550620000d167407bbe4852a4cd3f60c01b6200011a60201b60201c565b80600360006101000a81548173ffffffffffffffffffffffffffffffffffffffff021916908373ffffffffffffffffffffffffffffffffffffffff1602179055505050620001ce565b50565b600080fd5b600073ffffffffffffffffffffffffffffffffffffffff82169050919050565b60006200014f8262000122565b9050919050565b620001618162000142565b81146200016d57600080fd5b50565b600081519050620001818162000156565b92915050565b60008060408385031215620001a157620001a06200011d565b5b6000620001b18582860162000170565b9250506020620001c48582860162000170565b9150509250929050565b6147f080620001de6000396000f3fe608060405234801561001057600080fd5b506004361061010b5760003560e01c806399fdb320116100a2578063ae06c1b711610071578063ae06c1b714610292578063b9a2de3a146102ae578063bf98065c146102ca578063f3ae2415146102e6578063f851a440146103165761010b565b806399fdb3201461021e5780639c1662731461023c578063a001ecdd14610258578063ac18de43146102765761010b565b80635e318e07116100de5780635e318e07146101ae5780637da393e0146101ca5780638f283970146101e657806396b5a755146102025761010b565b80632d06177a146101105780633d39c2601461012c578063571a26a01461015c57806357c90de514610192575b600080fd5b61012a60048036038101906101259190613a1a565b610334565b005b61014660048036038101906101419190613a7d565b61059f565b6040516101539190613ab9565b60405180910390f35b61017660048036038101906101719190613a7d565b6105de565b6040516101899796959493929190613ae3565b60405180910390f35b6101ac60048036038101906101a79190613b52565b610680565b005b6101c860048036038101906101c39190613a7d565b610dd2565b005b6101e460048036038101906101df9190613a7d565b61122a565b005b61020060048036038101906101fb9190613a1a565b6118c2565b005b61021c60048036038101906102179190613a7d565b611a5e565b005b610226612142565b6040516102339190613bf1565b60405180910390f35b61025660048036038101906102519190613c0c565b612168565b005b61026061268d565b60405161026d9190613c73565b60405180910390f35b610290600480360381019061028b9190613a1a565b612693565b005b6102ac60048036038101906102a79190613a7d565b612a2f565b005b6102c860048036038101906102c39190613a7d565b612c6d565b005b6102e460048036038101906102df9190613b52565b6132ee565b005b61030060048036038101906102fb9190613a1a565b6137fc565b60405161030d9190613ca9565b60405180910390f35b61031e613983565b60405161032b9190613ab9565b60405180910390f35b61034867446c858ef34af1e660c01b6139a9565b61035c679d0c5e5b2064f7d860c01b6139a9565b61037067201fcfcb88fc6ed960c01b6139a9565b6103846772d0ef85258a80ac60c01b6139a9565b61039867f8f46c1bbeb3b50860c01b6139a9565b600360009054906101000a900473ffffffffffffffffffffffffffffffffffffffff1673ffffffffffffffffffffffffffffffffffffffff163373ffffffffffffffffffffffffffffffffffffffff1614610428576040517f08c379a000000000000000000000000000000000000000000000000000000000815260040161041f90613d21565b60405180910390fd5b61043c679d322953803c53a660c01b6139a9565b61045067f71dbe06db6521b360c01b6139a9565b610464677fb79c0238b5d5c560c01b6139a9565b61047867565384e6d9b19b7360c01b6139a9565b61048c674db0cb79ef5a8b9d60c01b6139a9565b6104a06793bd59ad510124e360c01b6139a9565b6104b4676ae1d09e28d3e7f360c01b6139a9565b6104bd816137fc565b156104fd576040517f08c379a00000000000000000000000000000000000000000000000000000000081526004016104f490613d8d565b60405180910390fd5b61051167539cc1b06f00336b60c01b6139a9565b61052567888d3918123af76660c01b6139a9565b610539673fcd7b5eedc4a0bf60c01b6139a9565b6004819080600181540180825580915050600190039060005260206000200160009091909190916101000a81548173ffffffffffffffffffffffffffffffffffffffff021916908373ffffffffffffffffffffffffffffffffffffffff16021790555050565b600481815481106105af57600080fd5b906000526020600020016000915054906101000a900473ffffffffffffffffffffffffffffffffffffffff1681565b60056020528060005260406000206000915090508060000160009054906101000a900473ffffffffffffffffffffffffffffffffffffffff16908060010160009054906101000a900473ffffffffffffffffffffffffffffffffffffffff16908060020154908060030154908060040154908060050154908060060160009054906101000a900473ffffffffffffffffffffffffffffffffffffffff16905087565b61069467aef7b7a9905e2a1460c01b6139a9565b816106a9670388534c040462b760c01b6139a9565b6106bd6790b1460823489b7b60c01b6139a9565b6106d167ed9c581a405d236b60c01b6139a9565b6106e567d4938cf15ede2a9260c01b6139a9565b600073ffffffffffffffffffffffffffffffffffffffff166005600083815260200190815260200160002060000160009054906101000a900473ffffffffffffffffffffffffffffffffffffffff1673ffffffffffffffffffffffffffffffffffffffff160361078a576040517f08c379a000000000000000000000000000000000000000000000000000000000815260040161078190613df9565b60405180910390fd5b61079e6702aee7bff3113b8160c01b6139a9565b6107b267c2c4d3f8f1352f2160c01b6139a9565b6107c667dfd27896c9be965b60c01b6139a9565b6107da6775ccea917b485c9460c01b6139a9565b826107ef6706e61e737720441460c01b6139a9565b61080367672e2f9776665e9660c01b6139a9565b6108176706881c90432d105f60c01b6139a9565b61082b6723aabee7dca0cbe460c01b6139a9565b60056000828152602001908152602001600020600401544210610883576040517f08c379a000000000000000000000000000000000000000000000000000000000815260040161087a90613e65565b60405180910390fd5b610897677d6dcc9eeaa8f75960c01b6139a9565b6108ab6770e47a1c6d0b594560c01b6139a9565b6108bf67f4a4a35b4e8d0efb60c01b6139a9565b6108d367e4e8ed7797431c1460c01b6139a9565b6108e7671ea44aefaecd78eb60c01b6139a9565b6108fb67a30556cca977a83460c01b6139a9565b600060056000868152602001908152602001600020905061092667ce6eb88c8e81ea6f60c01b6139a9565b61093a67ad1944ee7beb5fc060c01b6139a9565b61094e675318520db919ad9f60c01b6139a9565b80600501548411610994576040517f08c379a000000000000000000000000000000000000000000000000000000000815260040161098b90613ef7565b60405180910390fd5b6109a867aa6212acc28991e260c01b6139a9565b6109bc67422c56f9ab13e11560c01b6139a9565b6109d067a912a1dd2167d12c60c01b6139a9565b6109e4678c87bba18010be2c60c01b6139a9565b8060060160009054906101000a900473ffffffffffffffffffffffffffffffffffffffff1673ffffffffffffffffffffffffffffffffffffffff163373ffffffffffffffffffffffffffffffffffffffff1603610a76576040517f08c379a0000000000000000000000000000000000000000000000000000000008152600401610a6d90613f63565b60405180910390fd5b610a8a67c1ceacf35f6d243860c01b6139a9565b610a9e67ee07b2d47a9eb4dd60c01b6139a9565b610ab267a07a1f81041b4b6460c01b6139a9565b600160009054906101000a900473ffffffffffffffffffffffffffffffffffffffff1673ffffffffffffffffffffffffffffffffffffffff166323b872dd3330876040518463ffffffff1660e01b8152600401610b1193929190613f83565b6020604051808303816000875af1158015610b30573d6000803e3d6000fd5b505050506040513d601f19601f82011682018060405250810190610b549190613fe6565b50610b6967f9e2a1072168336960c01b6139a9565b610b7d67f570a21860df5abf60c01b6139a9565b600073ffffffffffffffffffffffffffffffffffffffff168160060160009054906101000a900473ffffffffffffffffffffffffffffffffffffffff1673ffffffffffffffffffffffffffffffffffffffff1614610cdf57610be96741742b75b80a4ff660c01b6139a9565b610bfd67684368ecaab6eaff60c01b6139a9565b610c1167d892d01ff2017dc860c01b6139a9565b600160009054906101000a900473ffffffffffffffffffffffffffffffffffffffff1673ffffffffffffffffffffffffffffffffffffffff1663a9059cbb8260060160009054906101000a900473ffffffffffffffffffffffffffffffffffffffff1683600501546040518363ffffffff1660e01b8152600401610c96929190614013565b6020604051808303816000875af1158015610cb5573d6000803e3d6000fd5b505050506040513d601f19601f82011682018060405250810190610cd99190613fe6565b50610cf4565b610cf3670bdea420b5bab9da60c01b6139a9565b5b610d0867ad36f40224ac3b8660c01b6139a9565b838160050181905550610d2567c328d7c06d74390960c01b6139a9565b338160060160006101000a81548173ffffffffffffffffffffffffffffffffffffffff021916908373ffffffffffffffffffffffffffffffffffffffff160217905550610d7c6799b94e64edb6f4af60c01b6139a9565b610d906735fd014989ec73d760c01b6139a9565b7f0e54eff26401bf69b81b26f60bd85ef47f5d85275c1d268d84f68d6897431c47853386604051610dc39392919061403c565b60405180910390a15050505050565b610de66794d8527c4dd1da5660c01b6139a9565b610dfa6791b0db11530c9ba960c01b6139a9565b610e0e67bf29503b47b89aa860c01b6139a9565b610e2267ad3db3a16afefe8860c01b6139a9565b610e366733a01cc972bccf8c60c01b6139a9565b600360009054906101000a900473ffffffffffffffffffffffffffffffffffffffff1673ffffffffffffffffffffffffffffffffffffffff163373ffffffffffffffffffffffffffffffffffffffff16148015610ea25750610ea166c0bcd6d4d096ad60c01b6139ac565b5b80610ece5750610eb1336137fc565b8015610ecd5750610ecc6766ae26cad6d8cce760c01b6139ac565b5b5b610f0d576040517f08c379a0000000000000000000000000000000000000000000000000000000008152600401610f04906140bf565b60405180910390fd5b610f21676113611f8049538660c01b6139a9565b610f3567e85975656d0bb3e360c01b6139a9565b610f4967aa24bda6d0cc103360c01b6139a9565b610f5d6765fa0f3849c685c960c01b6139a9565b610f7167bdbd39e3e88ec8a260c01b6139a9565b610f8567a2b340223adfc7c160c01b6139a9565b6000600160009054906101000a900473ffffffffffffffffffffffffffffffffffffffff1673ffffffffffffffffffffffffffffffffffffffff166370a08231306040518263ffffffff1660e01b8152600401610fe29190613ab9565b602060405180830381865afa158015610fff573d6000803e3d6000fd5b505050506040513d601f19601f8201168201806040525081019061102391906140f4565b9050611039676279242b52ca492160c01b6139a9565b61104d67d87e8a7fc64206da60c01b6139a9565b61106167685b795556ea6d0c60c01b6139a9565b808211156110a4576040517f08c379a000000000000000000000000000000000000000000000000000000000815260040161109b9061416d565b60405180910390fd5b6110b86704fb431ed5387b1760c01b6139a9565b6110cc6722ddc638b3aa0e8660c01b6139a9565b6110e067604aafb723beef7b60c01b6139a9565b600160009054906101000a900473ffffffffffffffffffffffffffffffffffffffff1673ffffffffffffffffffffffffffffffffffffffff1663a9059cbb600360009054906101000a900473ffffffffffffffffffffffffffffffffffffffff16846040518363ffffffff1660e01b815260040161115f929190614013565b6020604051808303816000875af115801561117e573d6000803e3d6000fd5b505050506040513d601f19601f820116820180604052508101906111a29190613fe6565b506111b767d58a3fb097253f2360c01b6139a9565b6111cb67d580b6ad2ac0d93f60c01b6139a9565b7f78473f3f373f7673597f4f0fa5873cb4d375fea6d4339ad6b56dbd411513cb3f600360009054906101000a900473ffffffffffffffffffffffffffffffffffffffff168360405161121e929190614013565b60405180910390a15050565b61123e67edab015e64d6a0f260c01b6139a9565b80611253670388534c040462b760c01b6139a9565b6112676790b1460823489b7b60c01b6139a9565b61127b67ed9c581a405d236b60c01b6139a9565b61128f67d4938cf15ede2a9260c01b6139a9565b600073ffffffffffffffffffffffffffffffffffffffff166005600083815260200190815260200160002060000160009054906101000a900473ffffffffffffffffffffffffffffffffffffffff1673ffffffffffffffffffffffffffffffffffffffff1603611334576040517f08c379a000000000000000000000000000000000000000000000000000000000815260040161132b90613df9565b60405180910390fd5b6113486702aee7bff3113b8160c01b6139a9565b61135c67c2c4d3f8f1352f2160c01b6139a9565b61137067831fec1105c587bf60c01b6139a9565b611384677989b4adbe85cf6060c01b6139a9565b611398679d5e69d836c9a11f60c01b6139a9565b6113ac672356d3ce791478a360c01b6139a9565b60006005600084815260200190815260200160002090506113d767d67bb9fc0a06a94e60c01b6139a9565b6113eb6724cfa514d9916b1760c01b6139a9565b6113ff67e989e19e7cfa293960c01b6139a9565b8060040154421015611446576040517f08c379a000000000000000000000000000000000000000000000000000000000815260040161143d906141d9565b60405180910390fd5b61145a67d80eb5d13fd2105360c01b6139a9565b61146e6748ccbf259171109460c01b6139a9565b61148267b2dd9878eff5fb5f60c01b6139a9565b611496670aacdb57b996793f60c01b6139a9565b8060060160009054906101000a900473ffffffffffffffffffffffffffffffffffffffff1673ffffffffffffffffffffffffffffffffffffffff163373ffffffffffffffffffffffffffffffffffffffff1614611528576040517f08c379a000000000000000000000000000000000000000000000000000000000815260040161151f90614245565b60405180910390fd5b61153c670cef7b42a72c382160c01b6139a9565b61155067a5d617a4095d675f60c01b6139a9565b6115646740c636a5604389e960c01b6139a9565b60008160010160009054906101000a900473ffffffffffffffffffffffffffffffffffffffff1690506115a167d784c87901a4f19960c01b6139a9565b6115b567582d2155e6ed3c1160c01b6139a9565b600061271060025484600501546115cc9190614294565b6115d69190614305565b90506115ec67b581cc98716c59b860c01b6139a9565b61160067a178f7e015283e3d60c01b6139a9565b60008184600501546116129190614336565b90506116286723c4a2661776573060c01b6139a9565b61163c67f286e5817cd350b060c01b6139a9565b8273ffffffffffffffffffffffffffffffffffffffff166323b872dd303387600201546040518463ffffffff1660e01b815260040161167d93929190613f83565b600060405180830381600087803b15801561169757600080fd5b505af11580156116ab573d6000803e3d6000fd5b505050506116c36724af6591bb9e6a7760c01b6139a9565b6116d767aedac08c17c5df0c60c01b6139a9565b600160009054906101000a900473ffffffffffffffffffffffffffffffffffffffff1673ffffffffffffffffffffffffffffffffffffffff1663a9059cbb8560000160009054906101000a900473ffffffffffffffffffffffffffffffffffffffff16836040518363ffffffff1660e01b8152600401611758929190614013565b6020604051808303816000875af1158015611777573d6000803e3d6000fd5b505050506040513d601f19601f8201168201806040525081019061179b9190613fe6565b506117b067ad01463c97da07ff60c01b6139a9565b6117c467b38628e17b765ac160c01b6139a9565b7f5d9121d0d49467544ab0278e267daa7661304e0bd2994dbbc9d2922b58133c60866040516117f39190613c73565b60405180910390a161180f678f53fb6c272d833160c01b6139a9565b60056000878152602001908152602001600020600080820160006101000a81549073ffffffffffffffffffffffffffffffffffffffff02191690556001820160006101000a81549073ffffffffffffffffffffffffffffffffffffffff021916905560028201600090556003820160009055600482016000905560058201600090556006820160006101000a81549073ffffffffffffffffffffffffffffffffffffffff02191690555050505050505050565b6118d6672a53fa8991c2e9dd60c01b6139a9565b6118ea679d0c5e5b2064f7d860c01b6139a9565b6118fe67201fcfcb88fc6ed960c01b6139a9565b6119126772d0ef85258a80ac60c01b6139a9565b61192667f8f46c1bbeb3b50860c01b6139a9565b600360009054906101000a900473ffffffffffffffffffffffffffffffffffffffff1673ffffffffffffffffffffffffffffffffffffffff163373ffffffffffffffffffffffffffffffffffffffff16146119b6576040517f08c379a00000000000000000000000000000000000000000000000000000000081526004016119ad90613d21565b60405180910390fd5b6119ca679d322953803c53a660c01b6139a9565b6119de67f71dbe06db6521b360c01b6139a9565b6119f2679c83952bc095e8e460c01b6139a9565b611a0667e46c187b4ddae14a60c01b6139a9565b611a1a67dda2f8babb96c0f160c01b6139a9565b80600360006101000a81548173ffffffffffffffffffffffffffffffffffffffff021916908373ffffffffffffffffffffffffffffffffffffffff16021790555050565b611a7267ec302dd46f5b802660c01b6139a9565b80611a87670388534c040462b760c01b6139a9565b611a9b6790b1460823489b7b60c01b6139a9565b611aaf67ed9c581a405d236b60c01b6139a9565b611ac367d4938cf15ede2a9260c01b6139a9565b600073ffffffffffffffffffffffffffffffffffffffff166005600083815260200190815260200160002060000160009054906101000a900473ffffffffffffffffffffffffffffffffffffffff1673ffffffffffffffffffffffffffffffffffffffff1603611b68576040517f08c379a0000000000000000000000000000000000000000000000000000000008152600401611b5f90613df9565b60405180910390fd5b611b7c6702aee7bff3113b8160c01b6139a9565b611b9067c2c4d3f8f1352f2160c01b6139a9565b611ba467a075050d0a6e18bc60c01b6139a9565b611bb86767f2ab90b8b4b13360c01b6139a9565b611bcc672cb4acf8c93ccceb60c01b6139a9565b611be0678fc4aaf098bf9b7a60c01b6139a9565b6000600560008481526020019081526020016000209050611c0b6713f2c7c3406d74cd60c01b6139a9565b611c1f677c1d928296f5f53d60c01b6139a9565b611c336794999b8c085253a660c01b6139a9565b8060000160009054906101000a900473ffffffffffffffffffffffffffffffffffffffff1673ffffffffffffffffffffffffffffffffffffffff163373ffffffffffffffffffffffffffffffffffffffff1614611cc5576040517f08c379a0000000000000000000000000000000000000000000000000000000008152600401611cbc906143b6565b60405180910390fd5b611cd9679d32b851881d5c3360c01b6139a9565b611ced67841ab430b89c96a860c01b6139a9565b611d0167128d59cc19dcdedd60c01b6139a9565b611d1567f3921839017f03d760c01b6139a9565b80600401544210611d5b576040517f08c379a0000000000000000000000000000000000000000000000000000000008152600401611d5290613e65565b60405180910390fd5b611d6f67a5c73d13c6e65b2760c01b6139a9565b611d8367119670728c0e5e5160c01b6139a9565b611d976768573e5440eb26f560c01b6139a9565b60008160010160009054906101000a900473ffffffffffffffffffffffffffffffffffffffff169050611dd467d84d524bc81b70f860c01b6139a9565b611de867fb735299284aee6560c01b6139a9565b8073ffffffffffffffffffffffffffffffffffffffff166323b872dd308460000160009054906101000a900473ffffffffffffffffffffffffffffffffffffffff1685600201546040518463ffffffff1660e01b8152600401611e4d93929190613f83565b600060405180830381600087803b158015611e6757600080fd5b505af1158015611e7b573d6000803e3d6000fd5b50505050611e9367035587cfaeb8994f60c01b6139a9565b611ea767fa397f2bd49ad76d60c01b6139a9565b600073ffffffffffffffffffffffffffffffffffffffff168260060160009054906101000a900473ffffffffffffffffffffffffffffffffffffffff1673ffffffffffffffffffffffffffffffffffffffff161461200957611f1367a179343f7fddbcb560c01b6139a9565b611f2767878d8415c36e387260c01b6139a9565b611f3b6768bcb2d3cf797fee60c01b6139a9565b600160009054906101000a900473ffffffffffffffffffffffffffffffffffffffff1673ffffffffffffffffffffffffffffffffffffffff1663a9059cbb8360060160009054906101000a900473ffffffffffffffffffffffffffffffffffffffff1684600501546040518363ffffffff1660e01b8152600401611fc0929190614013565b6020604051808303816000875af1158015611fdf573d6000803e3d6000fd5b505050506040513d601f19601f820116820180604052508101906120039190613fe6565b5061201e565b61201d678c8b14c49101e95360c01b6139a9565b5b61203267dff480b437f556ad60c01b6139a9565b612046672788a75ee4de2f9860c01b6139a9565b7f2809c7e17bf978fbc7194c0a694b638c4215e9140cacc6c38ca36010b45697df846040516120759190613c73565b60405180910390a161209167e6c067e03f33ad3f60c01b6139a9565b60056000858152602001908152602001600020600080820160006101000a81549073ffffffffffffffffffffffffffffffffffffffff02191690556001820160006101000a81549073ffffffffffffffffffffffffffffffffffffffff021916905560028201600090556003820160009055600482016000905560058201600090556006820160006101000a81549073ffffffffffffffffffffffffffffffffffffffff0219169055505050505050565b600160009054906101000a900473ffffffffffffffffffffffffffffffffffffffff1681565b61217c675e4dadee69c7329660c01b6139a9565b61219067fa9a3ca980347bb960c01b6139a9565b6121a4676dfe5fa6172dc7ee60c01b6139a9565b60008490506121bd6701d438af607fc5d660c01b6139a9565b6121d167a9736e80d34751fb60c01b6139a9565b6121e56729be516291aee33760c01b6139a9565b8073ffffffffffffffffffffffffffffffffffffffff16636352211e856040518263ffffffff1660e01b815260040161221e9190613c73565b602060405180830381865afa15801561223b573d6000803e3d6000fd5b505050506040513d601f19601f8201168201806040525081019061225f91906143eb565b73ffffffffffffffffffffffffffffffffffffffff163273ffffffffffffffffffffffffffffffffffffffff16146122cc576040517f08c379a00000000000000000000000000000000000000000000000000000000081526004016122c390614464565b60405180910390fd5b6122e067025905118548297b60c01b6139a9565b6122f467e37c6451805c82d660c01b6139a9565b612308671291444fdeb9e3c060c01b6139a9565b61231c67834f9c0d00c8c14160c01b6139a9565b6000831161235f576040517f08c379a0000000000000000000000000000000000000000000000000000000008152600401612356906144f6565b60405180910390fd5b612373679747c59982d1b8a060c01b6139a9565b61238767bad69e852ec9f70260c01b6139a9565b61239b67caf954558a14610560c01b6139a9565b8073ffffffffffffffffffffffffffffffffffffffff166323b872dd3230876040518463ffffffff1660e01b81526004016123d893929190613f83565b600060405180830381600087803b1580156123f257600080fd5b505af1158015612406573d6000803e3d6000fd5b5050505061241e677b61bde831908cdf60c01b6139a9565b612432673f30c71128ff965b60c01b6139a9565b600080600081548092919061244690614516565b919050559050612460678800e783bfc7d06a60c01b6139a9565b612474679d823b2626b5ec3460c01b6139a9565b60008342612482919061455e565b905061249867582069c03bcceae260c01b6139a9565b6040518060e001604052803273ffffffffffffffffffffffffffffffffffffffff1681526020018873ffffffffffffffffffffffffffffffffffffffff168152602001878152602001868152602001828152602001868152602001600073ffffffffffffffffffffffffffffffffffffffff168152506005600084815260200190815260200160002060008201518160000160006101000a81548173ffffffffffffffffffffffffffffffffffffffff021916908373ffffffffffffffffffffffffffffffffffffffff16021790555060208201518160010160006101000a81548173ffffffffffffffffffffffffffffffffffffffff021916908373ffffffffffffffffffffffffffffffffffffffff16021790555060408201518160020155606082015181600301556080820151816004015560a0820151816005015560c08201518160060160006101000a81548173ffffffffffffffffffffffffffffffffffffffff021916908373ffffffffffffffffffffffffffffffffffffffff16021790555090505061263567766f73db523d4e7460c01b6139a9565b61264967a48742a49004bd8d60c01b6139a9565b7f44c53be110c6aa83aa83cd02e351ed172359268272ee1b5d31c0fe48db35c6c782868360405161267c93929190614592565b60405180910390a150505050505050565b60025481565b6126a767418d8761a827d86060c01b6139a9565b6126bb679d0c5e5b2064f7d860c01b6139a9565b6126cf67201fcfcb88fc6ed960c01b6139a9565b6126e36772d0ef85258a80ac60c01b6139a9565b6126f767f8f46c1bbeb3b50860c01b6139a9565b600360009054906101000a900473ffffffffffffffffffffffffffffffffffffffff1673ffffffffffffffffffffffffffffffffffffffff163373ffffffffffffffffffffffffffffffffffffffff1614612787576040517f08c379a000000000000000000000000000000000000000000000000000000000815260040161277e90613d21565b60405180910390fd5b61279b679d322953803c53a660c01b6139a9565b6127af67f71dbe06db6521b360c01b6139a9565b6127c36759e19bf961eaacc660c01b6139a9565b6127d7674f38de6eb01ec7a760c01b6139a9565b6127eb673669d071c44c395360c01b6139a9565b6127ff6783d867f04afe02e660c01b6139a9565b60005b600480549050811015612a2b57612823678270ae29f201206c60c01b6139a9565b61283767799b6c658f48cc2960c01b6139a9565b8173ffffffffffffffffffffffffffffffffffffffff1660048281548110612862576128616145c9565b5b9060005260206000200160009054906101000a900473ffffffffffffffffffffffffffffffffffffffff1673ffffffffffffffffffffffffffffffffffffffff1603612a04576128bc67ef727bb3ae6064a360c01b6139a9565b6128d067b0b0d830b6b0c6f360c01b6139a9565b600460016004805490506128e49190614336565b815481106128f5576128f46145c9565b5b9060005260206000200160009054906101000a900473ffffffffffffffffffffffffffffffffffffffff1660048281548110612934576129336145c9565b5b9060005260206000200160006101000a81548173ffffffffffffffffffffffffffffffffffffffff021916908373ffffffffffffffffffffffffffffffffffffffff16021790555061299067c10fc1d5c132488a60c01b6139a9565b6129a467c2b382492856091b60c01b6139a9565b60048054806129b6576129b56145f8565b5b6001900381819060005260206000200160006101000a81549073ffffffffffffffffffffffffffffffffffffffff021916905590556129ff67bfc191b478893ecc60c01b6139a9565b612a2b565b612a1867e2bf8a08ab72058d60c01b6139a9565b8080612a2390614516565b915050612802565b5050565b612a4367172141358923c2fb60c01b6139a9565b612a576791b0db11530c9ba960c01b6139a9565b612a6b67bf29503b47b89aa860c01b6139a9565b612a7f67ad3db3a16afefe8860c01b6139a9565b612a936733a01cc972bccf8c60c01b6139a9565b600360009054906101000a900473ffffffffffffffffffffffffffffffffffffffff1673ffffffffffffffffffffffffffffffffffffffff163373ffffffffffffffffffffffffffffffffffffffff16148015612aff5750612afe66c0bcd6d4d096ad60c01b6139ac565b5b80612b2b5750612b0e336137fc565b8015612b2a5750612b296766ae26cad6d8cce760c01b6139ac565b5b5b612b6a576040517f08c379a0000000000000000000000000000000000000000000000000000000008152600401612b61906140bf565b60405180910390fd5b612b7e676113611f8049538660c01b6139a9565b612b9267e85975656d0bb3e360c01b6139a9565b612ba667090b53527159b4aa60c01b6139a9565b612bba67a36f0690d355645560c01b6139a9565b612bce67575b32f51712ee5860c01b6139a9565b612be26777d2627039eb24e660c01b6139a9565b612bf667d3d93bbcbdfa035f60c01b6139a9565b612710811115612c3b576040517f08c379a0000000000000000000000000000000000000000000000000000000008152600401612c3290614673565b60405180910390fd5b612c4f67216e24733ecc272860c01b6139a9565b612c636769b013ba7c06e22060c01b6139a9565b8060028190555050565b612c81677b50ca7f49e4691860c01b6139a9565b80612c96670388534c040462b760c01b6139a9565b612caa6790b1460823489b7b60c01b6139a9565b612cbe67ed9c581a405d236b60c01b6139a9565b612cd267d4938cf15ede2a9260c01b6139a9565b600073ffffffffffffffffffffffffffffffffffffffff166005600083815260200190815260200160002060000160009054906101000a900473ffffffffffffffffffffffffffffffffffffffff1673ffffffffffffffffffffffffffffffffffffffff1603612d77576040517f08c379a0000000000000000000000000000000000000000000000000000000008152600401612d6e90613df9565b60405180910390fd5b612d8b6702aee7bff3113b8160c01b6139a9565b612d9f67c2c4d3f8f1352f2160c01b6139a9565b612db3671fb30fddf54f9b6e60c01b6139a9565b612dc767c6ab7bb02738bccd60c01b6139a9565b612ddb676397697198f4c24c60c01b6139a9565b612def673c0e7c7b706ef43460c01b6139a9565b6000600560008481526020019081526020016000209050612e1a67558c037e96af814860c01b6139a9565b612e2e67187155585bae366460c01b6139a9565b612e4267366d9ec1d39a7d6760c01b6139a9565b8060000160009054906101000a900473ffffffffffffffffffffffffffffffffffffffff1673ffffffffffffffffffffffffffffffffffffffff163373ffffffffffffffffffffffffffffffffffffffff1614612ed4576040517f08c379a0000000000000000000000000000000000000000000000000000000008152600401612ecb906143b6565b60405180910390fd5b612ee867989df476d55b530860c01b6139a9565b612efc67ea3ffd95a8e207bd60c01b6139a9565b612f10670fa20953186b5dc160c01b6139a9565b60008160060160009054906101000a900473ffffffffffffffffffffffffffffffffffffffff169050612f4d671d4a2ce0d438fb0860c01b6139a9565b612f61670dd139e487ed260660c01b6139a9565b600082600501549050612f7e67d229d91484f7319860c01b6139a9565b612f92675c917f8ffd0707c060c01b6139a9565b600061271060025483612fa59190614294565b612faf9190614305565b9050612fc56762c28963eac3948460c01b6139a9565b612fd967b04c6dba4eb41fb560c01b6139a9565b60008183612fe79190614336565b9050612ffd67f421d89c0dac459b60c01b6139a9565b613011679a21b22a3cc8725a60c01b6139a9565b60008560010160009054906101000a900473ffffffffffffffffffffffffffffffffffffffff16905061304e67e994d817b19a3e7760c01b6139a9565b613062674b70f5915826c31360c01b6139a9565b8073ffffffffffffffffffffffffffffffffffffffff166323b872dd308789600201546040518463ffffffff1660e01b81526004016130a393929190613f83565b600060405180830381600087803b1580156130bd57600080fd5b505af11580156130d1573d6000803e3d6000fd5b505050506130e967c8599f4d474f838d60c01b6139a9565b6130fd67819d4f1e2c11032160c01b6139a9565b600160009054906101000a900473ffffffffffffffffffffffffffffffffffffffff1673ffffffffffffffffffffffffffffffffffffffff1663a9059cbb8760000160009054906101000a900473ffffffffffffffffffffffffffffffffffffffff16846040518363ffffffff1660e01b815260040161317e929190614013565b6020604051808303816000875af115801561319d573d6000803e3d6000fd5b505050506040513d601f19601f820116820180604052508101906131c19190613fe6565b506131d667c9a9c3ffccd2621160c01b6139a9565b6131ea672ba58ffa5dd6013a60c01b6139a9565b7fd2aa34a4fdbbc6dff6a3e56f46e0f3ae2a31d7785ff3487aa5c95c642acea50188868660405161321d9392919061403c565b60405180910390a1613239675ef5424e81e7373d60c01b6139a9565b60056000898152602001908152602001600020600080820160006101000a81549073ffffffffffffffffffffffffffffffffffffffff02191690556001820160006101000a81549073ffffffffffffffffffffffffffffffffffffffff021916905560028201600090556003820160009055600482016000905560058201600090556006820160006101000a81549073ffffffffffffffffffffffffffffffffffffffff021916905550505050505050505050565b613302675e8d6524a51845d560c01b6139a9565b81613317670388534c040462b760c01b6139a9565b61332b6790b1460823489b7b60c01b6139a9565b61333f67ed9c581a405d236b60c01b6139a9565b61335367d4938cf15ede2a9260c01b6139a9565b600073ffffffffffffffffffffffffffffffffffffffff166005600083815260200190815260200160002060000160009054906101000a900473ffffffffffffffffffffffffffffffffffffffff1673ffffffffffffffffffffffffffffffffffffffff16036133f8576040517f08c379a00000000000000000000000000000000000000000000000000000000081526004016133ef90613df9565b60405180910390fd5b61340c6702aee7bff3113b8160c01b6139a9565b61342067c2c4d3f8f1352f2160c01b6139a9565b61343467d75b3dda8e8400b360c01b6139a9565b61344867da40a52ab9581de060c01b6139a9565b61345c67967a09d19235d31660c01b6139a9565b613470672a8130de74b0588660c01b6139a9565b600060056000858152602001908152602001600020905061349b6739f126eb21ff9acb60c01b6139a9565b6134af679f02b37098483cc360c01b6139a9565b6134c367eb379cc7fca4fcee60c01b6139a9565b8060000160009054906101000a900473ffffffffffffffffffffffffffffffffffffffff1673ffffffffffffffffffffffffffffffffffffffff163373ffffffffffffffffffffffffffffffffffffffff1614613555576040517f08c379a000000000000000000000000000000000000000000000000000000000815260040161354c906143b6565b60405180910390fd5b613569676fc065f31a1601ac60c01b6139a9565b61357d675329b368d19c08b260c01b6139a9565b61359167c83e0a84c92575ae60c01b6139a9565b6135a5670e40512a246b69c360c01b6139a9565b806004015442106135eb576040517f08c379a00000000000000000000000000000000000000000000000000000000081526004016135e290613e65565b60405180910390fd5b6135ff67be66ec181989f6d460c01b6139a9565b613613672c1abbb8230535ea60c01b6139a9565b6136276741dfd7f18728a50a60c01b6139a9565b61363b67bbb12217178658f360c01b6139a9565b80600501548310613681576040517f08c379a000000000000000000000000000000000000000000000000000000000815260040161367890614705565b60405180910390fd5b6136956778d3b6102df67add60c01b6139a9565b6136a967b0893d52660fb9b360c01b6139a9565b6136bd67af92357b110abe5360c01b6139a9565b6136d16702e42f20418a636860c01b6139a9565b600073ffffffffffffffffffffffffffffffffffffffff168160060160009054906101000a900473ffffffffffffffffffffffffffffffffffffffff1673ffffffffffffffffffffffffffffffffffffffff1614613764576040517f08c379a000000000000000000000000000000000000000000000000000000000815260040161375b90614771565b60405180910390fd5b613778674a92f8e45911235960c01b6139a9565b61378c67f338812bbdfd271060c01b6139a9565b6137a067cc62acaf9ae5a77160c01b6139a9565b7f95f83d4dfba2e4f3f99527a8e8a18980457125d95df460c1601811c0c961528f84846040516137d1929190614791565b60405180910390a16137ed6779e87c9cad5e74c160c01b6139a9565b82816003018190555050505050565b6000613812679a423f4247e1284d60c01b6139a9565b613826679b13b392bd4fe54460c01b6139a9565b61383a6785db03a39948bc0e60c01b6139a9565b60005b6004805490508110156139505761385e67b021d08facdb1e3d60c01b6139a9565b61387267e1177fb1e3a11c6f60c01b6139a9565b8273ffffffffffffffffffffffffffffffffffffffff166004828154811061389d5761389c6145c9565b5b9060005260206000200160009054906101000a900473ffffffffffffffffffffffffffffffffffffffff1673ffffffffffffffffffffffffffffffffffffffff1603613929576138f76713d833726a226ec360c01b6139a9565b61390b677bc38f3e1fcb2a9c60c01b6139a9565b61391f67b31d839d9123b2d760c01b6139a9565b600191505061397e565b61393d671b55a83c17a23b9b60c01b6139a9565b808061394890614516565b91505061383d565b5061396567dee167e99b98ab1260c01b6139a9565b613979673fe8f0f39841eb5a60c01b6139a9565b600090505b919050565b600360009054906101000a900473ffffffffffffffffffffffffffffffffffffffff1681565b50565b600060019050919050565b600080fd5b600073ffffffffffffffffffffffffffffffffffffffff82169050919050565b60006139e7826139bc565b9050919050565b6139f7816139dc565b8114613a0257600080fd5b50565b600081359050613a14816139ee565b92915050565b600060208284031215613a3057613a2f6139b7565b5b6000613a3e84828501613a05565b91505092915050565b6000819050919050565b613a5a81613a47565b8114613a6557600080fd5b50565b600081359050613a7781613a51565b92915050565b600060208284031215613a9357613a926139b7565b5b6000613aa184828501613a68565b91505092915050565b613ab3816139dc565b82525050565b6000602082019050613ace6000830184613aaa565b92915050565b613add81613a47565b82525050565b600060e082019050613af8600083018a613aaa565b613b056020830189613aaa565b613b126040830188613ad4565b613b1f6060830187613ad4565b613b2c6080830186613ad4565b613b3960a0830185613ad4565b613b4660c0830184613aaa565b98975050505050505050565b60008060408385031215613b6957613b686139b7565b5b6000613b7785828601613a68565b9250506020613b8885828601613a68565b9150509250929050565b6000819050919050565b6000613bb7613bb2613bad846139bc565b613b92565b6139bc565b9050919050565b6000613bc982613b9c565b9050919050565b6000613bdb82613bbe565b9050919050565b613beb81613bd0565b82525050565b6000602082019050613c066000830184613be2565b92915050565b60008060008060808587031215613c2657613c256139b7565b5b6000613c3487828801613a05565b9450506020613c4587828801613a68565b9350506040613c5687828801613a68565b9250506060613c6787828801613a68565b91505092959194509250565b6000602082019050613c886000830184613ad4565b92915050565b60008115159050919050565b613ca381613c8e565b82525050565b6000602082019050613cbe6000830184613c9a565b92915050565b600082825260208201905092915050565b7f4e6f7420616e2061646d696e0000000000000000000000000000000000000000600082015250565b6000613d0b600c83613cc4565b9150613d1682613cd5565b602082019050919050565b60006020820190508181036000830152613d3a81613cfe565b9050919050565b7f4164647265737320697320616c72656164792061206d616e6167657200000000600082015250565b6000613d77601c83613cc4565b9150613d8282613d41565b602082019050919050565b60006020820190508181036000830152613da681613d6a565b9050919050565b7f41756374696f6e20646f6573206e6f7420657869737400000000000000000000600082015250565b6000613de3601683613cc4565b9150613dee82613dad565b602082019050919050565b60006020820190508181036000830152613e1281613dd6565b9050919050565b7f41756374696f6e2068617320656e646564000000000000000000000000000000600082015250565b6000613e4f601183613cc4565b9150613e5a82613e19565b602082019050919050565b60006020820190508181036000830152613e7e81613e42565b9050919050565b7f426964206d75737420626520686967686572207468616e20746865206375727260008201527f656e742062696400000000000000000000000000000000000000000000000000602082015250565b6000613ee1602783613cc4565b9150613eec82613e85565b604082019050919050565b60006020820190508181036000830152613f1081613ed4565b9050919050565b7f596f7520616c7265616479206861766520746865206869676865737420626964600082015250565b6000613f4d602083613cc4565b9150613f5882613f17565b602082019050919050565b60006020820190508181036000830152613f7c81613f40565b9050919050565b6000606082019050613f986000830186613aaa565b613fa56020830185613aaa565b613fb26040830184613ad4565b949350505050565b613fc381613c8e565b8114613fce57600080fd5b50565b600081519050613fe081613fba565b92915050565b600060208284031215613ffc57613ffb6139b7565b5b600061400a84828501613fd1565b91505092915050565b60006040820190506140286000830185613aaa565b6140356020830184613ad4565b9392505050565b60006060820190506140516000830186613ad4565b61405e6020830185613aaa565b61406b6040830184613ad4565b949350505050565b7f4e6f7420616e2061646d696e206f72206d616e61676572000000000000000000600082015250565b60006140a9601783613cc4565b91506140b482614073565b602082019050919050565b600060208201905081810360008301526140d88161409c565b9050919050565b6000815190506140ee81613a51565b92915050565b60006020828403121561410a576141096139b7565b5b6000614118848285016140df565b91505092915050565b7f416d6f756e742065786365656473206665657300000000000000000000000000600082015250565b6000614157601383613cc4565b915061416282614121565b602082019050919050565b600060208201905081810360008301526141868161414a565b9050919050565b7f41756374696f6e20686173206e6f7420656e6465642079657400000000000000600082015250565b60006141c3601983613cc4565b91506141ce8261418d565b602082019050919050565b600060208201905081810360008301526141f2816141b6565b9050919050565b7f596f7520617265206e6f74207468652068696768657374206269646465720000600082015250565b600061422f601e83613cc4565b915061423a826141f9565b602082019050919050565b6000602082019050818103600083015261425e81614222565b9050919050565b7f4e487b7100000000000000000000000000000000000000000000000000000000600052601160045260246000fd5b600061429f82613a47565b91506142aa83613a47565b92508282026142b881613a47565b915082820484148315176142cf576142ce614265565b5b5092915050565b7f4e487b7100000000000000000000000000000000000000000000000000000000600052601260045260246000fd5b600061431082613a47565b915061431b83613a47565b92508261432b5761432a6142d6565b5b828204905092915050565b600061434182613a47565b915061434c83613a47565b925082820390508181111561436457614363614265565b5b92915050565b7f596f7520617265206e6f74207468652073656c6c657200000000000000000000600082015250565b60006143a0601683613cc4565b91506143ab8261436a565b602082019050919050565b600060208201905081810360008301526143cf81614393565b9050919050565b6000815190506143e5816139ee565b92915050565b600060208284031215614401576144006139b7565b5b600061440f848285016143d6565b91505092915050565b7f596f7520646f6e2774206f776e20746865206974656d00000000000000000000600082015250565b600061444e601683613cc4565b915061445982614418565b602082019050919050565b6000602082019050818103600083015261447d81614441565b9050919050565b7f5374617274696e67207072696365206d7573742062652067726561746572207460008201527f68616e2030000000000000000000000000000000000000000000000000000000602082015250565b60006144e0602583613cc4565b91506144eb82614484565b604082019050919050565b6000602082019050818103600083015261450f816144d3565b9050919050565b600061452182613a47565b91507fffffffffffffffffffffffffffffffffffffffffffffffffffffffffffffffff820361455357614552614265565b5b600182019050919050565b600061456982613a47565b915061457483613a47565b925082820190508082111561458c5761458b614265565b5b92915050565b60006060820190506145a76000830186613ad4565b6145b46020830185613ad4565b6145c16040830184613ad4565b949350505050565b7f4e487b7100000000000000000000000000000000000000000000000000000000600052603260045260246000fd5b7f4e487b7100000000000000000000000000000000000000000000000000000000600052603160045260246000fd5b7f496e76616c6964206665652070657263656e7461676500000000000000000000600082015250565b600061465d601683613cc4565b915061466882614627565b602082019050919050565b6000602082019050818103600083015261468c81614650565b9050919050565b7f4e6577207374617274696e67207072696365206d757374206265206c6f77657260008201527f207468616e2063757272656e7420626964000000000000000000000000000000602082015250565b60006146ef603183613cc4565b91506146fa82614693565b604082019050919050565b6000602082019050818103600083015261471e816146e2565b9050919050565b7f4269642068617320616c7265616479206265656e20706c616365640000000000600082015250565b600061475b601b83613cc4565b915061476682614725565b602082019050919050565b6000602082019050818103600083015261478a8161474e565b9050919050565b60006040820190506147a66000830185613ad4565b6147b36020830184613ad4565b939250505056fea2646970667358221220a7cbb3cf397148c3a2b048eda8b85209ddee57da406501ba531d7bd81fa65f7564736f6c63430008140033",
  "linkReferences": {},
  "deployedLinkReferences": {}
}